:020000040800F2
:104000006810002001410008094100080B41000828
:104010000D4100080F410008114100080000000098
:104020000000000000000000000000001341000834
:104030001541000800000000174100081941000860
:104040001B4100081B4100081B4100081B410008E0
:104050001B4100081B4100081B4100081B410008D0
:104060001B4100081B4100081B4100081B410008C0
:104070001B4100081B4100081B4100081B410008B0
:104080001B4100081B4100081B410008D96B0008B8
:10409000316C00081B4100081B4100081B4100084F
:1040A0001B4100081B4100081B4100081B41000880
:1040B0001B4100081B4100081B4100081B41000870
:1040C0001B4100081B4100081B4100081B41000860
:1040D0001B410008D96A00081B4100081B41000869
:1040E0001B4100081B410008BF6B0008DFF80CD023
:1040F00000F04AF800480047BD7100086810002031
:104100000648804706480047FEE7FEE7FEE7FEE771
:10411000FEE7FEE7FEE7FEE7FEE7FEE7396A000896
:10412000ED40000840EA01039B0703D009E008C9FD
:10413000121F08C0042AFAD203E011F8013B00F86C
:10414000013B521EF9D27047D2B201E000F8012BB8
:10415000491EFBD270470022F6E710B513460A4607
:1041600004461946FFF7F0FF204610BD30B504465F
:104170000020034600E05B1C934203D2E05CCD5C70
:10418000401BF8D030BD0000064C074D06E0E0684B
:1041900040F0010394E8070098471034AC42F6D38E
:1041A000FFF7A8FF007300082073000870B58C1893
:1041B00010F8015B15F0070301D110F8013B2A113B
:1041C00006D110F8012B03E010F8016B01F8016B28
:1041D0005B1EF9D12B0705D40023521E0DD401F824
:1041E000013BFAE710F8013BCB1A921C03E013F8ED
:1041F000015B01F8015B521EF9D5A142D8D3002022
:1042000070BD10B5044624B1012C07D0022C15D185
:104210000AE01021012002F0A7F810E04FF48051CD
:10422000022002F051F80AE01021012002F09CF86F
:104230004FF48051022002F047F800E000BF00BFB9
:1042400010BD0146CAB20B1243EA022070470000BB
:1042500010B5002404E0A748005DA7490855641C78
:10426000A64800888442F6D3A3484068A449486021
:10427000A14880688860A14800881F280FD00220CC
:10428000FFF7BFFF00209C490860487B1A220521E8
:1042900002F02EF90021012002F008F910BD964825
:1042A000C07B282803D09448C07B2A2816D1924886
:1042B000407C01069048807C41EA00418E48C07CE9
:1042C00041EA00208C49097D08438E4908608A48EC
:1042D000C17D807D41EA00208B49086086480068E6
:1042E0008A4988426FD18448407B8949096888425D
:1042F00007D88148807B012803DB7F48807B10281A
:104300000DDD0220FFF77DFF7B49487B242205213C
:1043100002F0EEF80021012002F0C8F8E8E076484B
:10432000C07B25285FD01BDC15286FD00EDC082849
:104330006DD006DC00285BD0032830D0042867D17C
:1043400076E00A2873D01228F9D12DE01A380A280D
:104350005ED2DFE800F0392EB17D33B1B1B1B143A7
:104360008A286FD00EDC552867D006DC282844D078
:104370002A284ED02F28E2D154E05A2829D0882864
:10438000DDD176E0A8286DD004DC8F286FD09E2880
:10439000D5D173E0AA287BD0AF28D0D182E056498E
:1043A000487B01F05FFE95E05349487B01F032FD08
:1043B00090E05149487B01F069FE8BE04E49487B13
:1043C00001F064FE86E086E04B49487B01F072FD17
:1043D00080E04949487B01F063FD7BE04649487B2A
:1043E00001F0FCFD76E04449487B01F0A9FD71E055
:1043F0004149487B01F052FE6CE03F49487B42490D
:104400000A684049096801F05FFD63E01BE024E0B1
:1044100052E03949487B3C490A683A49096801F049
:1044200079FE57E03449487B01F054FE52E02AE01F
:104430003149487B01F0D6FC4CE02F49487B01F024
:104440000DFD47E029E02C49487B01F007FD41E0E4
:104450002949487B01F002FD3CE02749487B01F0F7
:10446000FDFC37E02449487B01F0F8FC32E01EE017
:104470000EE02149487B01F0F1FC2BE01E49487B0E
:1044800001F0ECFC26E01C49487B01F0E7FC21E050
:104490001949487B01F0E2FC1CE01749487B01F018
:1044A000DDFC17E01449487B01F0D8FC12E012490A
:1044B000487B01F0D3FC0DE00220FFF7A2FE0E497D
:1044C000487B2022052102F013F80021012001F091
:1044D000EDFF00BF0CE00220FFF793FE0649487B8A
:1044E0002022052102F004F80021012001F0DEFF66
:1044F00000BFD3E6FC0200203C030020D6000020D1
:104500005C030020D8000020DC000020555342430B
:104510003801002010B5002449E047F6FF70294912
:1045200008602948008800F00F00284908700846F4
:104530000078274901EB8000D0F8000C84B204F425
:104540000040C8B12148007801EB8000D0F8000C91
:10455000C0F30E0048F68F7108401C4909781C4AC8
:1045600002EB8101C1F8000C18490978491E194A6B
:1045700052F8210080471AE004F08000B8B11348D7
:104580000078134901EB8000D0F8000C48F60F7159
:1045900008400E4909780E4A02EB8101C1F8000C6F
:1045A0000A490978491E0C4A52F8210080470548FB
:1045B000006880B20449088000F400400028ACD1B3
:1045C00010BD0000445C0040FC0000202C000020D6
:1045D000005000401C0100200001002010B5002404
:1045E00073E147F6FF70BF490860BF48008800F0DC
:1045F0000F00BE4908700846007800287ED1B948EF
:104600004438006800F44050B9490880B54844383F
:10461000006800F03000B7490880B24944390968A1
:104620004BF68F7201EA020080F40050AD49443924
:104630000860096848F6BF7201EA020080F02000B5
:10464000A84944390860A848008800F010000028F4
:1046500038D10846006848F60F710840A14944392E
:10466000086000F003FF9F49443909684BF68F72D8
:1046700001EA02009E49098801F4805109B180F4E1
:1046800080509B49098801F4005109B180F4005021
:10469000944944390860096848F6BF7201EA02008B
:1046A0009449097801F0100109B180F01000914996
:1046B000097801F0200109B180F0200089494439CE
:1046C000086010BD87484438006884B204F0800058
:1046D000D8B384484438006848F60F7108408149CF
:1046E0004439086000F0C2FE7E49443909684BF63F
:1046F0008F7201EA02007E49098800E0A6E001F419
:10470000805109B180F480507949098801F4005141
:1047100009B180F40050734944390860096848F6CB
:10472000BF7201EA02007349097801F0100109B172
:1047300080F010006F49097801F0200109B180F084
:104740002000684944390860BBE7FFE704F40060D3
:10475000D8B3644844380068C0F30E0048F68F713F
:10476000084060494439086001F0C8FE5D49443999
:1047700009684BF68F7201EA02005D49098801F46D
:10478000805109B180F480505949098801F40051E1
:1047900009B180F40050534944390860096848F66B
:1047A000BF7201EA02005349097801F0100109B112
:1047B00080F010004F49097801F0200109B180F024
:1047C00020004849443908607BE7FFE704F40040D3
:1047D00000287AD0434844380068C0F30E0048F6F9
:1047E0008F7108403F494439086001F093F93D4911
:1047F000443909684BF68F7201EA02003C49098886
:1048000001F4805109B180F480503949098801F4DC
:10481000005109B180F400503249443908600968F8
:1048200048F6BF7201EA02003249097801F010012E
:1048300009B180F010002F49097801F0200109B179
:1048400080F020002749443908603AE7274800787B
:10485000294901EB8000D0F8000C84B204F4004038
:10486000C0B12248007801EB8000D0F8000CC0F302
:104870000E0048F68F7108401C4909781E4A02EB69
:104880008101C1F8000C19490978491E1B4A52F8E8
:104890002100804704F08000B8B114480078164920
:1048A00001EB8000D0F8000C48F60F7108400F496A
:1048B0000978114A02EB8101C1F8000C0B49097813
:1048C000491E0F4A52F8210080470648006880B20E
:1048D0000549088000F4004000287FF482AE00BF44
:1048E000EFE60000445C0040FC0000202C000020AB
:1048F0004000002042000020005000401C01002029
:10490000000100200B4A02EB8001D1F8001C01F4E9
:10491000804169B102EB8001D1F8001C48F68F722A
:10492000114041F48041034B03EB8002C2F8001CAC
:1049300070470000005000400B4A02EB8001D1F8A4
:10494000001C01F0400169B102EB8001D1F8001CAC
:1049500048F68F72114041F04001034B03EB800297
:10496000C2F8001C7047000000500040064A02EBED
:104970008001D1F8001C48F68F621140024B03EB16
:104980008002C2F8001C7047005000402DE9F0473B
:104990002848006800F110052E8826480068077A2C
:1049A000D6B9042F18D12448007801280FD100214E
:1049B0002248006880B2801C214A42F81010302042
:1049C0002049088000BF00201B49087003E007272A
:1049D00010201C49088027E0AC88A64201D804209A
:1049E00000E002200746B44200D93446A0B2A968CC
:1049F00088478046002000F0F7FC8146A2B2494675
:104A0000404602F021F9A1B2002001F09FFC288865
:104A1000001B28806888204468803020094908806D
:104A200000020949088000BF024909680F72BDE809
:104A3000F08700003000002028000020505C00407B
:104A40000060004042000020400000202DE9F041BD
:104A50002848006800F110042688A068C0B1BEB1E3
:104A6000A588B54200D93546A8B2A168884707464F
:104A70002088401B2080608828446080002000F04F
:104A800091FC8046AAB24146384601F06BF800BF5F
:104A9000208850B14FF44050174908800021084643
:104AA00001F054FC3020154908802088A1888842F4
:104AB00004DB03200F490968087218E020880028E9
:104AC00004DD05200B490968087210E0208870B9E0
:104AD000062008490968087200210948006880B268
:104AE000801C084A42F81010302004490880BDE8B4
:104AF000F081000030000020400000204200002033
:104B0000505C0040006000402DE9F84F9B48006871
:104B100045780027BA46062D1BD1984800680078D2
:104B200000F07F00002813D1944909688878012893
:104B300003D193490968CF690AE0022803D190495B
:104B400009680F6A04E0032802D18D4909684F6A99
:104B500094E0002D64D189480068408800285FD126
:104B600086480068C08802285AD1844800680079C5
:104B7000002855D181480068007800F07F0028B9EE
:104B80007E480068808808B97E4F77E07B480068DF
:104B9000007800F07F00012810D178490968487931
:104BA000774909688A6900219047002866D17348CF
:104BB0000068807A002861D0724F5FE06F4800681B
:104BC000007800F07F00022858D16C4800684079D6
:104BD00000F00F0669480068407900F070096748E6
:104BE0000068407900F0800038B1674901EB860029
:104BF000D0F8000C00F0300806E0634901EB8600B5
:104C0000D0F8000C00F4405860480078B04235D924
:104C1000B9F1000F32D1B8F1000F2FD0594F2DE06C
:104C2000082D07D155480068007800F07F0028BBA8
:104C3000574F23E00A2D21D150480068007800F03A
:104C40007F0001281AD14D480068807AB0B14B48E6
:104C50000068408890B949480068007970B94748B1
:104C60000068C088012809D1444909684879444945
:104C700009688A690021904700B9464F57B13F48FB
:104C80000068A0F812A03D48006887610020B8477E
:104C900000240FE0394A12685078394A12681169C5
:104CA00088470446032C05D1092034490968087255
:104CB000BDE8F88F31480068008A4FF6FF718842DE
:104CC00004D109202D4909680872F1E7022C03D0AC
:104CD0002A480068008A20B9082028490968087213
:104CE000E6E726480068007800F08000E0B323483B
:104CF0000068C088009021480068008A00998842B6
:104D000004D91E4900980968088223E01B480068FE
:104D1000008A1A490968C98888421BDA174800685E
:104D2000008A1749096891F82C10884203DA00209C
:104D3000194908700EE011480068008A1049096896
:104D400091F82C1090FBF1F201FB120010B9012038
:104D5000114908700A48006890F82C10074800684C
:104D60008182FFF713FE07E0FFE70320034909688C
:104D7000087200030949088000BF99E7300000204D
:104D80003400002085670008005000403C010020EE
:104D9000096700085967000828000020400000202B
:104DA00010B500F049FD10BD10B500F08DFD10BD2F
:104DB00030B504460B464CB1B4F5805F23D0B4F552
:104DC000584F21D0B4F5604F4ED130E0002104E0BF
:104DD0002D48405C03F8010B491C3E29F8DB891C77
:104DE00002E0002003F8010B0846491CB0F5007FE3
:104DF000F7DB02E0002003F8010B0846491CB0F580
:104E0000006FF7DB3BE000BF002104E01F48405C7F
:104E100003F8010B491C0429F8DB02E0002003F829
:104E2000010B0846491CB0F5006FF7DB27E00021B5
:104E300004E01748405C03F8010B491C0B29F8DB20
:104E4000002104E01348405C03F8010B491C2F29A2
:104E5000F8DB0B3102E0002003F8010B0846491C87
:104E6000B0F5006FF7DB0AE0002102E0002003F854
:104E7000010B0846491CB0F5006FF7DB00BF00BF0F
:104E80004FF4006030BD000076720008B472000874
:104E9000F8010020B872000870B504460D461646A9
:104EA0004CB1B4F5805F07D0B4F5584F05D0B4F5D8
:104EB000604F0DD102E000BF00BF12E0324629462C
:104EC000204600F039F902F06DF90849086008E061
:104ED000B4F5B03F04D332462946204600F008F826
:104EE00000BF00BF4FF4006070BD0000040200204E
:104EF0002DE9FE4F0E4615468148D0F81CA000F162
:104F000016078048007810BB7E480078C0437D4972
:104F100008707D4800887D4908804FF400607C4916
:104F200008800988C20092FBF1F1784A108800EBF2
:104F3000D072C1EB6201774A1180744800887449CD
:104F40000988484300F10060401E7349086003224D
:104F500072A16B480830FFF709F900286DD181462E
:104F600080466C4800886A49098848436449C96991
:104F700088425DD3002449E065480088B4FBF0F125
:104F800000FB114066490988614A1288654B01FBA4
:104F9000023100EB01081846804503D35E480068E3
:104FA000804504D94FF480505F49086030E05D4887
:104FB000A8EB000056490988B0FBF1F201FB120092
:104FC00080B95748008852490988564A00FB012990
:104FD00053480088401C5249088000F037F9484681
:104FE00000F0D4F800F032F949480088B4FBF0F141
:104FF00000FB114000EB090B325D601C305C02EBE2
:10500000002081B2584600F001F9A41CAC42B3D391
:1050100000BF386828443860386850450CDB0020F1
:1050200038603F4908804FF400703F49086003E052
:105030004FF480403C4908605EE003223BA13048C9
:105040000830FFF793F8002846D1002440E0315D96
:105050003748006801F03AFF00F0FF08B8F1000F90
:105060002ED169463248006802F080F838B32D49E5
:105070000098884204D3284900980968884204D9D6
:105080004FF480502849086024E026490098401ACF
:105090001F490988B0FBF1F201FB120020B900F0B2
:1050A000D5F8009800F072F800F0D0F89DF808905C
:1050B00009EBD9735A10DDE9000101F08CF806E024
:1050C000B8F1020F03D14FF4007017490860641C57
:1050D000AC42BCD300BF0FE0032216A10848083041
:1050E000FFF744F820B94FF480600F49086003E0EF
:1050F0004FF480600C4908602846BDE8FE8F000030
:105100006C0B002008020020E0F7FF1F0C020020BB
:105110000A0200200E0200201002002042494E0028
:1051200014020020004000080000002048455800FC
:1051300004020020534543002DE9F04180460D460E
:1051400016462C4602272034203400E02034E07A32
:10515000202804D038467F1CB0F5007FF6D3B7F581
:10516000007F09D8202221460748FEF7DBFF0020F8
:105170000549C882088303E020210348FEF7EBFFBE
:105180003046BDE8F08100006C0B002030B50446CD
:1051900004254FF4302000F065F80546042D17D1A2
:1051A0000C48006940F002000A4908610846446161
:1051B000006940F0400008614FF4302000F052F8E0
:1051C00005460448006941F6FD710840014908613F
:1051D000284630BD0020024004200B49C96801F078
:1051E000010109B101200EE00749C96801F004017D
:1051F00009B1022007E00449C96801F0100109B1B2
:10520000032000E0042070470020024070B50446EF
:105210000D460426F00300F025F80646042E11D1B1
:105220000948006940F00100074908612580F00342
:1052300000F018F806460448006941F6FE7108407F
:1052400001490861304670BD002002400248034910
:1052500048600348486070472301674500200240CA
:10526000AB89EFCD00B502460423FFF7B5FF034637
:1052700003E0FFF7B1FF0346521E012B01D1002AC4
:10528000F7D102B90523184600BD2DE9F0410246C9
:1052900000250026002000230024002791F803C0E9
:1052A0000CF00F0591F803C00CF0100CBCF1000FCE
:1052B00003D091F802C04CEA050591F800C0BCF19A
:1052C000000F31D0146800202BE04FF0010C0CFAD5
:1052D00000F3B1F800C00CEA03069E4220D183001F
:1052E0004FF00F0C0CFA03F7BC4305FA03FC4CEA31
:1052F000040491F803C0BCF1280F06D14FF0010C53
:105300000CFA00FCC2F814C00AE091F803C0BCF12A
:10531000480F05D14FF0010C0CFA00FCC2F810C088
:10532000401C0828D1D31460B1F800C0BCF1FF0FB5
:1053300034DD546800202EE000F1080C4FF0010825
:1053400008FA0CF3B1F800C00CEA03069E4221D122
:1053500083004FF00F0C0CFA03F7BC4305FA03FC73
:105360004CEA040491F803C0BCF1280F05D100F108
:10537000080C08FA0CF8C2F8148091F803C0BCF1CC
:10538000480F07D100F1080C4FF0010808FA0CF89B
:10539000C2F81080401C0828CED35460BDE8F081CC
:1053A0000161704701460548006880B200EBC1000A
:1053B000001D034A32F8100080B27047505C004074
:1053C0000060004001460648006880B200EBC10062
:1053D000801D044A32F81000C0F309007047000035
:1053E000505C00400060004001460548006880B203
:1053F00000EBC100034A32F8100080B27047000091
:10540000505C004000600040014629B90120034A79
:1054100012681082002070470148FCE7300000202D
:105420003801002010B50F4B18681B1D19681B1D93
:105430001A68A8B10C4CA070030A2371030CA37165
:10544000030E2372A1720B0A23730B0CA3730B0EB2
:105450002374A274130A2375130CA375130E2376F9
:1054600010BD0000E8F7FF1FE000002010B519484C
:105470000068047A022C01D0042C05D1FFF786FACB
:1054800014480068047A1EE0062C1BD111480068FD
:105490004078052810D10F480068007800F07F00A0
:1054A00050B901F0CBFB0B490968C87800F0AEFE9B
:1054B00009490968086A8047084909688868804777
:1054C000082400E00824034909680C7200F05EFB20
:1054D00010BD0000300000203C00002034000020FF
:1054E00008B50121402000F095FB2020ADF8000018
:1054F00010208DF8030003208DF80200694604484F
:10550000FFF7C3FE20210248FFF74AFF08BD000055
:1055100000180140012001490860704794012342AE
:105520000020014908607047940123420146012090
:1055300059B94FF44842054B1A60C202044B1A6035
:105540004FF0C862034B1A60002070474C000020E7
:1055500048000020440000202DE9F04706460D4693
:1055600017461C464FF001088EB922463946284698
:10557000FFF71EFC48B9A14604EBD971C1F34F02F5
:1055800004496818394600F001FE4FF00008404613
:10559000BDE8F087004000082DE9F04104460D46C3
:1055A00016461F464FF0010834B93A4631462846A0
:1055B000FFF772FC4FF000084046BDE8F0810000A4
:1055C00070B50546002414480068007800F07F009C
:1055D000212810D1FE2D0ED10F480068408850B907
:1055E0000D480068808830B90B480068C0880128E1
:1055F00001D10A4C01E0022070BD0CB90220FBE78A
:105600000548006884610021034800684182002049
:10561000A0470020F0E700003000002009540008F7
:1056200010B504460249204601F084F810BD000080
:105630009C01002010B504460249204601F07AF88A
:1056400010BD00009401002070B5054606480068B2
:10565000C478052C01DD002070BD044800EBC401B6
:10566000284601F067F8F7E730000020A401002089
:105670000246002901DD02207047002A01DD0220D8
:10568000FAE70020F8E7000010B50446114800686A
:10569000007800F07F0021281AD1FF2C18D10D4886
:1056A00000684088A0B90B480068808880B9094824
:1056B0000068C08860B90120FFF73EF90220FFF7BB
:1056C00021F905480549086000200549087010BD0A
:1056D0000220FCE730000020555342433C030020E9
:1056E000D400002010B50020324988723248C079B9
:1056F000324909684872002000F080FD4FF40071C3
:10570000002000F04DFE2021002000F02DFE182189
:10571000002000F0A1FD2A4890F82C10002000F095
:10572000ADFD5821002000F001FE0020FFF71EF91A
:10573000002000F0E5FD0021012000F031FE98215D
:10574000012000F0F3FD2021012000F00DFE0021DA
:10575000012000F0B9FD0021022000F021FED82137
:10576000022000F079FD164890F82C10022000F07D
:1057700085FD4FF44051022000F0A6FD00210220DB
:1057800000F0F2FD0E4890F82C10002000F076FD9D
:10579000002000F0B5FD002000F038FD012009498F
:1057A000086009480949086000200949087001F0AB
:1057B00043FA10BDE002002006720008300000200D
:1057C00040010020CC010020555342433C030020FF
:1057D000D40000207047704710B5FFF723FE00206B
:1057E0000A490968887200F0F5F900200849086044
:1057F0004FF4044007490880084600880449091FFF
:10580000086000200449086010BD0000300000203E
:10581000445C00403A000020CC01002010B5044850
:1058200000680449884202D00220FEF7EAFC10BD5D
:105830003C0300205553424310B51E48007840F009
:1058400010001C4908701C480078022810D003285A
:1058500023D0042802D0052829D100E000BF002071
:10586000154908704FF44051022000F02DFD1FE053
:105870001248C07B28280ED10E48007840F0020064
:105880000C4908700D49487B0D490A680D490968A3
:1058900000F01AFB00BF00BF0AE00121002000F069
:1058A00005FE4FF44051022000F00EFD00E000BF65
:1058B00000BF10BDE5010020D40000203C03002003
:1058C000DC000020D800002010B52548007840F00A
:1058D0001000234908702348C47B0220FFF772FDA3
:1058E0002149088008460288D821204800F03AF96A
:1058F0001F48007810B1012822D102E0FEF7A8FC71
:105900002CE02A2C0ED11648007840F001001449F2
:1059100008701449487B17490A681749096800F05C
:10592000F9FB1BE00120FEF76CFC0E49487B2422AA
:10593000052100F0DDFD0021022000F0B7FD0DE0A3
:105940000220FEF75EFC0749487B2422052100F077
:10595000CFFD0021022000F0A9FD00BF00BF10BD57
:10596000E50100203C030020D6000020FC020020BE
:10597000D4000020DC000020D800002010B508482A
:105980000068807A58B10520064908600120FEF7BA
:10599000D3FF0220FEF7B6FF00200349087010BDB8
:1059A00030000020CC010020D40000200420014958
:1059B00008607047CC01002070470000024A0A408E
:1059C0000243024B1A60704780FFFF1F08ED00E0A2
:1059D00070B502264A480068447849480068007853
:1059E00000F07F0000284AD1092C03D100F042FFCB
:1059F000064665E0052C14D141480068C0787F2830
:105A00000BDC3F480068807838B93D4800688088E2
:105A100018B93B480068807A08B108256BE0002679
:105A20004EE0032C14D136480068C07801280DD10F
:105A300033480068808848B931480068407A00F0EF
:105A4000200018B100F03AFF064639E0022637E0A0
:105A5000012C35D12A480068C07801280DD128488A
:105A60000068808848B926480068407A00F0200025
:105A700018B100F09BFD064622E0022620E02048F7
:105A80000068007800F07F00012805D10B2C17D1A9
:105A900000F088FF064613E019480068007800F01F
:105AA0007F0002280BD1012C03D100F07FFD0646B8
:105AB00006E0032C04D100F015FF064600E00226A4
:105AC0004EB1E0B20F4A1268516988470646032E6C
:105AD00001D109250FE00EB108250CE006250021B3
:105AE0000948006880B2801C084A42F81010302033
:105AF0000749088000BF024909680D7270BD0000A7
:105B00003000002034000020505C00400060004065
:105B10004200002010B511480068047A032C01D01F
:105B2000052C05D1FEF792FF0C480068047A0EE0C0
:105B3000072C05D10A490968C8688047082406E08F
:105B4000022C01D0042C01D1082400E008240349D0
:105B500009680C7200F01AF810BD00003000002037
:105B600034000020F0B5561C7510074E06EB4104BA
:105B70002B4605E034F8047B20F8017B401C5B1EBB
:105B8000002BF7D1F0BD00000060004010B50D48BB
:105B900090F82C10002000F071FB0B480068007A90
:105BA000082805D1400209490880102008490880CA
:105BB00005480068007A092801D1012010BD0020A5
:105BC000FCE70000400100203000002040000020E1
:105BD0004200002010B5012000F0F2FF01240B4824
:105BE000046000200A4908800846008807490860C8
:105BF0000020091D08604FF4E05005490880084660
:105C0000008802490860002010BD0000405C004090
:105C10003A00002029B1064A92690243044B9A6176
:105C200004E0034A92698243014B9A617047000085
:105C3000001002402DE9F04104460D4616463C484E
:105C4000007870B93B4850F8240068433A4908602E
:105C5000384850F82400704338490860012034491E
:105C600008703348007801284ED13548006800BBE1
:105C7000304830F8240083B2324A2F480168204669
:105C8000FFF76AFCC7B22FB12F48007840F0080038
:105C90002D490870402298212A4800F0D5FF254858
:105CA00050F8240040382649086040202749086001
:105CB00011E02449254A126888184022982100F0F2
:105CC000C3FF1F48006840381D4908601F4800682E
:105CD00040301E4908604021012000F037FB302190
:105CE000012000F041FB1448006840301249086070
:105CF00012480068403811490860154880684038EB
:105D000013498860FFF70CFC0C48006870B900204C
:105D10000B4908600D4908600749086003200D49D8
:105D20000870002002490870FFF7F4FBBDE8F0811D
:105D3000E401002048000020E8010020EC010020E0
:105D4000D40100206C030020E5010020D8010020D0
:105D50005C030020D40000202DE9F04104460D46EC
:105D600017461E46B8191C4951F82410884213D909
:105D70002A2D02D10220FEF744FA0020FEF741FA54
:105D800021220521204600F0B3FB0021012000F074
:105D90008DFB0020BDE8F08110488168104850F864
:105DA00024007043814214D02A2D03D10220FEF733
:105DB00028FA02E00020FEF724FA0849487B242252
:105DC000052100F095FB0021012000F06FFB002071
:105DD000E0E70120DEE700004C0000203C0300204B
:105DE0004800002010B504462046FFF79FFB68B12D
:105DF0000749487B3A22022100F07AFB012108463C
:105E000000F054FB0020FEF7FCF910BD00BFFCE7DA
:105E10003C03002070B506460C48007C00F00100F1
:105E200010B10B4C05250BE00EB90A4C00E00A4CF2
:105E30000648C07C242802DC0448C57C00E02425F8
:105E40002946204600F028FE70BD00003C030020DB
:105E500054000020590000207D00002010B50446A9
:105E60000E48806818B90020FEF7CBF90BE00B480C
:105E7000007B00F0800018B10020FEF7C2F902E0BC
:105E80000220FEF7BEF90549487B2022052100F0DB
:105E90002FFB0021012000F009FB10BD3C03002076
:105EA00010B504460821024800F0F6FD10BD0000C0
:105EB000A500002010B504460421024800F0ECFDC6
:105EC00010BD0000A100002070B506460C46154626
:105ED0001948007820BB1949487B2B4622462821C7
:105EE000FFF73AFF00B970BD1448007B00F0800056
:105EF00040B10220104908702A4621463046FFF77B
:105F000099FE0CE00220FEF77CF90C49487B242224
:105F1000052100F0EDFA0121084600F0C7FAE2E79A
:105F200005480078022804D12A4621463046FFF76A
:105F300081FE00BFD7E70000D40000203C03002012
:105F400010B504462046FFF7F1FA68B11F49487BB7
:105F50003A22022100F0CCFA0121084600F0A6FA0C
:105F60000020FEF74EF910BD194850F82400401EDD
:105F7000000E18490870164850F82400401E000C06
:105F80004870134830F82400401E000A88701048FA
:105F900010F82400401EC8700F4850F82400000E6E
:105FA00008710D4850F82400000C48710A4830F878
:105FB0002400000A8871084810F82400C8710821DC
:105FC000044800F069FD00BFCDE700003C0300205D
:105FD0004C000020BF0000204800002010B50446FF
:105FE0002046FFF7A3FA68B11A49487B3A220221FA
:105FF00000F07EFA0121084600F058FA0020FEF772
:1060000000F910BD144850F82400000E134908711F
:10601000114850F82400000C48710F4830F8240053
:10602000000A88710C4810F82400C8710C4850F818
:106030002400000C48720A4830F82400000A8872D4
:10604000074810F82400C8720C21044800F024FD11
:1060500000BFD6E73C0300204C000020C700002012
:106060004800002070B505460648C07C122802DCB6
:106070000448C47C00E012242146034800F00CFDD3
:1060800070BD00003C030020AD00002010B50446A8
:106090000121002000F00AFA10BD000010B50446EE
:1060A0002046FFF743FA68B10949487B3A220221AA
:1060B00000F01EFA0121084600F0F8F90020FEF772
:1060C000A0F810BD0121002000F0F0F900BFF8E7B2
:1060D0003C03002010B504460D48806848B90C48C0
:1060E000007C00F0040020B90121002000F0DEF95E
:1060F0000CE00220FEF785F80549487B24220521A3
:1061000000F0F6F90021012000F0D0F910BD0000E8
:106110003C03002070B506460C4615461948007829
:1061200020BB1949487B2B4622462A21FFF714FE43
:1061300000B970BD1448007B00F0800040B9012018
:10614000104908704FF44051022000F0BDF80CE0F7
:106150000020FEF756F80C49487B2422052100F068
:10616000C7F90021012000F0A1F9E2E70548007815
:10617000012804D12A462146304600F081FD00BFA7
:10618000D7E70000D40000203C03002070B5034690
:106190000C4615460D4EB34209D3002204E0002000
:1061A00024F81200501C82B2AA42F8DB70BD002213
:1061B00007E0184600F00CF824F812009B1C501C55
:1061C00082B2AA42F5DB00BFF0E7000000A007089A
:1061D0000146088870472DE9F04105460E461746EE
:1061E000002407E036F814102846FFF70FF8AD1C1E
:1061F000601C84B2BC42F5DBBDE8F0814FF6F8715B
:106200000140014A11607047505C004030B50146C2
:106210000E4B1A78002011E003060D4C04EB93534B
:10622000D3F8003C48F68F742340C4B223430406DD
:10623000074D05EB9454C4F8003C401C9042EBD34E
:1062400041F08003034C236030BD00003C0100207E
:10625000005000404C5C004010B54A105300054A05
:10626000126892B202EBC002121D034C44F81230C5
:1062700010BD0000505C00400060004010B50246B8
:106280000F48006880B200EBC200801D0D4C04EB8B
:1062900040033E290BDD481101F01F040CB9441ED8
:1062A000A0B24FF4004444EA80241C6007E0481088
:1062B00001F001040CB1441CA0B284021C6010BDAA
:1062C000505C00400060004010B50C4C04EB8003B3
:1062D000D3F8003C4BF68F7403EA040201F48053B8
:1062E0000BB182F4805201F400530BB182F40052DE
:1062F000024C04EB8003C3F8002C10BD005000409A
:10630000094B03EB8002D2F8002C4BF68F7302EAA4
:10631000030181F4805181F40051034B03EB8002AF
:10632000C2F8001C704700000050004010B54A1031
:106330005200044B1B689BB203EBC003024C44F8B1
:10634000132010BD505C004000600040044A1268F9
:1063500092B202EBC002921C024B43F8121070473B
:10636000505C00400060004010B50C4C04EB800312
:10637000D3F8003C48F6BF7403EA040201F01003AE
:106380000BB182F0100201F020030BB182F0200269
:10639000024C04EB8003C3F8002C10BD00500040F9
:1063A00010B5074B03EB8002D2F8002C48F68F1390
:1063B0001A400A43024C04EB8003C3F8002C10BDC2
:1063C0000050004010B500F001F810BD0CB50020E1
:1063D000019000903348006840F4803031490860F3
:1063E00000BF3048006800F4003000900198401C65
:1063F0000190009818B90198B0F5A06FF1D1294823
:10640000006800F4003010B10120009001E000208D
:1064100000900098012843D12348006840F0100004
:10642000214908600846006820F00300086008461B
:10643000006840F0020008601A4840681949486046
:106440000846406848600846406840F480604860FC
:106450000846406820F47C1048600846406840F4D4
:10646000E81048600846006840F08070086000BF8F
:106470000C48006800F000700028F9D00948406816
:1064800020F00300074948600846406840F00200D9
:10649000486000BF0348406800F00C000828F9D1AC
:1064A0000CBD0000001002400020024070B50546FF
:1064B0000C460C480C490860084605730D229821CB
:1064C00000F0C2FB0D210120FFF740FF0520074926
:1064D00008702CB10420087030210120FFF744FF20
:1064E00070BD0000555342535C030020D4000020CF
:1064F000014B99701A737047AD00002008B5284809
:10650000006880B2001D274931F8100080B201EB0D
:106510004000009024480068007A09282FD0009895
:1065200000782149096808700098401C0090009884
:1065300000781D49096848700098401C0090009838
:10654000801C0090009931F8020B0091FDF779FE54
:106550001549096848800098801C0090009931F81E
:10656000020B0091FDF76DFE0F49096888800098C5
:10657000801C0090009800880B490968C8800120A1
:1065800009490968087208480068C08810B9FFF70F
:106590001FFA01E0FEF7B8FAFFF7F8FA08BD0000AD
:1065A000505C004000600040300000202DE9F047C2
:1065B00050480068007800F07F08B8F1000F0AD159
:1065C0004C480068407A00F0DF004A490968487288
:1065D0000020BDE8F087B8F1020F7DD14548006882
:1065E000408818B943480068007908B10220F0E7F4
:1065F000DFF804913F480068477927F080052C4672
:106600003C480068407900F0800038B13B4901EB1C
:106610008400D0F8000C00F0300606E0374901EBAA
:106620008400D0F8000C00F4405699F80000A8420D
:1066300004D91EB12F480068807A08B90220C8E743
:1066400007F0800080B12D4901EB8400D0F8000CE8
:1066500000F03000102843D1E0B2FEF76DF9E0B24F
:106660003021FFF781FE3BE0244901EB8400D0F8A4
:10667000000C00F44050B0F5805F31D1C4B9204A1D
:1066800092F82C10E0B2FFF7F9FD1C4A02EB8401EE
:10669000D1F8001C4BF68F7201EA020080F48050A2
:1066A00080F40050154A02EB8401C1F8000C17E099
:1066B000E0B2FEF727F9114A02EB8401D1F8001C81
:1066C0004BF68F7201EA020080F4805080F4005093
:1066D0000A4A02EB840100E008E0C1F8000C00BFA8
:1066E0000849096848698047002072E700BF022016
:1066F0006FE70000300000203C0100200050004007
:10670000400100203C00002010B504462CB90120B7
:10671000064909680882002010BD05490968086813
:106720008047024800680A30F6E700003000002089
:106730003C00002010B5024606480068438A32B982
:106740008888C01A034C24682082002010BD086885
:106750001844FBE73000002010B504462CB9012096
:10676000064909680882002010BD05490968886843
:106770008047024800680C30F6E700003000002037
:106780003C00002010B504462CB9022035490968A8
:106790000882002010BD002033490880314800687D
:1067A000007800F07F00E0B92E490968487A00F0CF
:1067B000200129B12C49097841F002012A4A1170BF
:1067C00000F0400131B12849097801F0FE01264A64
:1067D000117005E02449097841F00101224A117045
:1067E0003AE020480068007800F07F00012801D1DD
:1067F0001D48CFE71B480068007800F07F000228A2
:1068000028D1184A1268517901F00F0001F0800276
:106810007AB1164B03EB8002D2F8002C02F0300262
:10682000102A16D1104A127842F001020E4B1A704B
:106830000FE00E4B03EB8002D2F8002C02F4405222
:10684000B2F5805F05D1084A127842F00102064B8A
:106850001A7001E000209DE7054909680869804732
:10686000014897E73000002026000020005000403B
:106870003C00002010B50E480068C0780D494978EA
:10688000884213DC0A480068807878B908480068B4
:10689000808858B906480068C07805490968887238
:1068A0000549096848688047002010BD0220FCE7C0
:1068B000300000203C0100203C00002010B50748BB
:1068C0000068407A40F02000044909684872044991
:1068D0000968C8698047002010BD00003000002012
:1068E0003C0000202DE9F0412A480068467926F056
:1068F00080073C4627480068407900F0800038B1A6
:10690000254901EB8400D0F8000C00F0300506E0CA
:10691000214901EB8400D0F8000C00F440551F48D9
:106920000078A04208D91B480068408820B91DB1F2
:1069300018480068807A10B90220BDE8F08106F09E
:10694000800080B1144A02EB8401D1F8001C48F6A3
:10695000BF7201EA020080F010000F4A02EB8401CE
:10696000C1F8000C10E00C4A02EB8401D1F8001CC5
:106970004BF68F7201EA020080F48050064A02EB67
:106980008401C1F8000C00BF054909688869804787
:106990000020D2E730000020005000403C010020E1
:1069A0003C00002010B5174B1B68D978154B1B68AD
:1069B0005879154B1B689A6990470446114800683E
:1069C000807AE8B13CB90F480068007918B90D48E1
:1069D0000068807808B1022010BD8CB90B490968A5
:1069E000C868804707480068407906490968C87246
:1069F00004480068C0780349096808730020EBE781
:106A00000220E9E730000020340000203C00002094
:106A1000042808D14FF0E021096941F004014FF04A
:106A2000E022116107E04FF0E021096921F0040143
:106A30004FF0E0221161704710B51348006840F034
:106A400001001149086008464068104908400E4995
:106A50004860084600680E4908400B49086008462F
:106A6000006820F4802008600846406820F4FE009A
:106A700048604FF41F008860FFF7A4FC4FF00060EF
:106A80000449086010BD0000001002400000FFF83B
:106A9000FFFFF6FE08ED00E070B505460C46224605
:106AA0009821284600F0D0F821460120FFF74EFC3F
:106AB00030210120FFF758FC0320054908700548E4
:106AC0008068001B034988600020087370BD0000C7
:106AD000D40000205C03002010B540F225511D4871
:106AE00000F03EF810B31B4800F064F8C4B21A4836
:106AF000008800F40040C8B91748008800F48040BE
:106B000060B10A2C03D000201349088020E012480D
:106B1000008840F400401049088019E00D2C06D18F
:106B20000D48008840F480400B49088010E00A4876
:106B30000088C0F30D0009490C5407480088401C28
:106B40000549088008460088C72801DD0020088024
:106B500010BD000000380140200000201802002075
:106B600070B50246002400230025002040F66A1676
:106B7000B14200D100BFC1F3421501F01F0301264D
:106B800006FA03F3012D02D19689334006E0022D67
:106B900002D1168A334001E0968A33400C12012656
:106BA00006FA04F41688344013B10CB1012000E059
:106BB000002070BD01468888C0F308007047704708
:106BC00018B10121034A116002E00021014A11605D
:106BD000704700009401234210B5FDF79BFC10BDE7
:106BE00010B50F4800680F4908800846008800F477
:106BF00080600D490988084030B14FF6FF300849E0
:106C000008600A49486880470648008800F4004048
:106C100005490988084008B1FDF7E0FC10BD0000F7
:106C2000445C0040FC0000203A00002040010020AD
:106C300010B5FFF7D5FF10BD7047000001200149D6
:106C40000860704704000020F0B5144604F1010C00
:106C50004FEA6C07DFF824C00CEB41033D460AE025
:106C60000678401C90F800C046EA0C2223F8022B5C
:106C70009B1C401C6D1E002DF2D1F0BD0060004039
:106C80002DE9F04104460D4616464248006800F1E1
:106C900040084148007870B9404850F824006843E3
:106CA0003F4908603D4850F8240070433D49086062
:106CB00001203949087038480078012856D1002051
:106CC0003949086010E0384801680068401C364ABD
:106CD00010603648415C36482E4A126881542D486F
:106CE0000068401C2B4908602A4800684045EAD3E8
:106CF0002B4800682F490988084429490860294819
:106D000000682C490988401A26490860234850F831
:106D100024000968B1FBF0F200FB1210C0B900209A
:106D20001C4908601D4830F8240083B21B4850F805
:106D300024001B4A1268111A1D4A2046FEF72CFC3B
:106D4000C7B22FB11C48007840F004001A490870FF
:106D50001A48806817490988401A184988604FF412
:106D600040510220FFF7B0FAFEF7DAFB0D48006849
:106D700018B11348007804280AD10020054908609A
:106D80000121FFF793FB002003490870FEF7C2FBC7
:106D9000BDE8F081DC010020E40100204800002073
:106DA000F0010020F4010020E0010020FC0200209E
:106DB0006C030020D6000020E50100205C030020C9
:106DC000D400002002E008C8121F08C1002AFAD12E
:106DD00070477047002001E001C1121F002AFBD15B
:106DE0007047000010B56FF00400FFF711FE0A486D
:106DF00000680A49B0FBF1F00949087008460078BC
:106E000000EB4001C1EBC0104FF6FF7101EAC0007A
:106E10000449088010BD00000800002000127A001C
:106E200022000020240000200146114A12884A4313
:106E30004FF0E0235A6100229A611A46126942F02B
:106E400001021A6100BF4FF0E022106900F0010258
:106E50001AB100F48032002AF5D04FF0E022126916
:106E600022F001024FF0E0231A6100229A6170477C
:106E70002400002070B503460C460021104602EBAA
:106E8000D0756D10A2EB45050DB1002070BD00213D
:106E90000FE04800401C185C30380B4D2D5C13F897
:106EA00011003038084E305C45EA00106054481C30
:106EB000C1B202EBD275B1EB650FEADB154602EB0E
:106EC000D570C0F34700E1E7E77200082DE9F04113
:106ED00004460D46012714B9B81EBDE8F08194F8A8
:106EE000650009280FD2DFE800F0050F4C77AAD61D
:106EF0000E0EFC003A2D06D1012064346070A5719D
:106F0000022004F864092BE194F86400C0F1020047
:106F1000255494F86400401EC0B284F8640048BB55
:106F2000607830389049095C207830388E4A105C9F
:106F300041EA001084F86B0094F86B0080B93020AF
:106F400020706070A070E070207131206071462068
:106F5000A071E071082084F8650084F864000FE0F7
:106F600094F86B00322806DC042084F864000220C8
:106F700084F8650004E0204600F018F94FF0FF3770
:106F8000EEE094F86400C0F10400255494F8640025
:106F9000401EC0B284F86400E8B9607830387249A5
:106FA000095C20783038704A105C41EA001084F89F
:106FB0006C00E07830381146095CA0783038105CFD
:106FC00041EA0010C1B26D200155032084F865002C
:106FD000022084F86400C3E094F86400C0F1020069
:106FE000255494F86400401EC0B284F8640028BBA5
:106FF000607830385C49095C207830385A4A105C37
:1070000041EA001084F8700094F8700020B1042860
:1070100003D005280BD101E000BF00BF0420643479
:107020006070E0794006000E04F8640905E020462F
:1070300000F0BCF84FF0FF3700BF00BF90E094F8BD
:10704000641094F86B00C1EB4000255494F8640080
:10705000401EC0B284F86400E0B994F86B004006AA
:10706000020E04F171012046FFF704FF94F870004E
:10707000042808D194F86B2004F1710104F1660032
:10708000FDF750F800E000BF052084F865000220FD
:1070900084F8640064E094F86400C0F102002554B0
:1070A00094F86400401EC0B284F86400B0BB0026AF
:1070B000607830382C49095C207830382A4A105CD6
:1070C00041EA001084F8D50094F86B003044C6B251
:1070D00094F86C003044C6B26D20005D3044C6B2F6
:1070E00000E023E094F870003044C6B2002000BFF6
:1070F00006E004F17101095C3144CEB2411CC8B212
:1071000094F86B108142F4DC94F8D5003044C6B298
:107110002EB9002084F86500002705E005E0204630
:1071200000F044F84FF0FF3700BF19E094F8640016
:10713000C0F10800C6B2A05DA8420BD194F864006B
:10714000401EC0B284F8640048B9204600F02EF812
:10715000022704E0204600F029F84FF0FF3700BF77
:1071600000BF3846B9E60000E772000802460B4649
:1071700092F8700008B1002070476D20805C187094
:1071800092F86C0058706720805C987092F86600E6
:10719000D87002F17100486092F86B000872087AAA
:1071A000EAE70000004870478C0B002010B5044649
:1071B000D6212046FCF7CFFF10BD00004FF48041E0
:1071C0004803FEF7FBFBFFF70DFEFEF789F90CE025
:1071D0000020064908606420FFF726FE01200449CC
:1071E000C1F894016420FFF71FFEF1E794012342E8
:1071F00000002342120100020000004084042257D4
:1072000000020102030109022000010100C0FA0985
:107210000400000208065004070581024000000730
:1072200005020240000004030904160349006F0030
:1072300054002D00530074007500640069006F0055
:10724000260355005300420020004D005300440027
:1072500042006F006F00740020004C006F0061005E
:1072600064006500720010035300540020004D00BC
:10727000610073007300EB3C904D53444F53352E27
:107280003000080402000200020000F80D003F0078
:10729000FF000000000000C80000800029BDA5DD3F
:1072A000024E4F204E414D45202020204641543172
:1072B00036202020F8FFFFFF20004B9C429238929E
:1072C0003800009D429238000000000000424F4FFD
:1072D000544C4F414445522008000000000000007B
:1072E0000000009D429238000102030405060708D1
:1072F000093A3B3C3D3E3F400A0B0C0D0E0F00008F
:10730000207300080000002018020000AC410008B3
:10731000F473000818020020500E0000D46D00081D
:1073200041420A84A24A0400093E010203040607FE
:10733000080935800202202D53544D2001180E53A8
:107340004420466C617368204469736B10ED312EE4
:10735000302024BC4E414E2629244203620662702E
:1073600039B001114208021002141A0353125412C8
:107370004D123312321A2002011013A14D0C1808BD
:10738000B959040A15A9204123030113D957140838
:10739000E5561B08D5081AD70413C1551B088910D8
:1073A0001A71041A35041A21041A49044132402979
:1073B0003CDA7D4C8B1D580C1AAD0413F4712B086C
:1073C00012F612722A08B21A260832041A2A082A59
:1073D00016481908322622E033201A1A6610721055
:1073E00019930125000C1552454144592020205481
:0473F00058540000ED
:04000005080040EDC2
:00000001FF
