:020000040800F2
:1000000058100020450100084D0100084F0100086C
:1000100051010008530100085501000800000000CC
:100020000000000000000000000000005701000870
:1000300059010008000000005B0100085D01000894
:100040005F0100085F0100085F0100085F01000810
:100050005F0100085F0100085F0100085F01000800
:100060005F0100085F0100085F0100085F010008F0
:100070005F0100085F0100085F0100085F010008E0
:100080005F0100085F0100085F010008A523000868
:100090006D2400085F0100085F0100085F0100088F
:1000A0005F0100085F0100085F0100085F010008B0
:1000B0005F0100085F0100085F0100085F010008A0
:1000C0005F0100085F0100085F0100085F01000890
:1000D0005F010008E92200085F0100085F010008D5
:1000E0005F0100085F010008932300085F0100081A
:1000F0005F0100085F0100085F0100085F01000860
:100100005F0100085F0100085F0100085F0100084F
:100110005F0100085F0100085F0100085F0100083F
:100120005F0100085F0100085F0100085F0100082F
:10013000DFF80CD000F050F800480047A92800086C
:10014000581000200648804706480047FEE7FEE7B3
:10015000FEE7FEE7FEE7FEE7FEE7FEE7FEE7FEE777
:10016000612200083101000840EA01039B0703D027
:1001700009E008C9121F08C0042AFAD203E011F8E6
:10018000013B00F8013B521EF9D27047D2B201E0A8
:1001900000F8012B491EFBD270470022F6E710B58C
:1001A00013460A4604461946FFF7F0FF204610BDE5
:1001B000421C10F8011B0029FBD1801A704730B592
:1001C00004460020034600E05B1C934203D2E05C3F
:1001D000CD5C401BF8D030BD064C074D06E0E06812
:1001E00040F0010394E8070098471034AC42F6D37E
:1001F000FFF7A2FF642A0008842A000870B58C1853
:1002000010F8015B15F0070301D110F8013B2A112A
:1002100006D110F8012B03E010F8016B01F8016B17
:100220005B1EF9D12B0705D40023521E0DD401F813
:10023000013BFAE710F8013BCB1A921C03E013F8DC
:10024000015B01F8015B521EF9D5A142D8D3002011
:1002500070BD00000B4910B50868401C02D1486809
:10026000401C0BD00A684FF48050B2F1005F04D3F9
:100270004968CA0701D08847002010BD4FF40050DC
:1002800010BD00000040000810B578B14FF4805454
:10029000012805D002280FD11021012001F06EFDA8
:1002A0002146BDE81040022001F024BD1021BDE828
:1002B0001040012001F062BD10BDC1B2000A40EA49
:1002C0000120704770B5614B614C00205988A4F142
:1002D000400202E0155C2554401C0D468842F9D3CB
:1002E0005B48626820301F2D4260A268826007D0A0
:1002F0000220FFF7C9FF00202060607B1A2221E066
:10030000E17B282901D02A290AD1D4F81100227DC5
:1003100000BA20F0FF0010435860E08A40BA9860AD
:100320004C4A2068904252D14B4A607B12689042FE
:1003300003D8A27B0AB1102A0DD90220FFF7A4FF2F
:10034000607B2422052101F0B5FDBDE8704000214D
:10035000012001F08BBD252958D01ADC152971D058
:100360000DDC08296ED005DCB9B3032936D0042989
:100370002DD163E00A2965D0122928D132E01A393B
:100380000A2924D2DFE801F03632235E3223232308
:10039000233E8A2956D00EDC552953D006DC282965
:1003A0003CD02A2940D02F2911D143E05A2925D009
:1003B00088290CD146E0A82944D004DC8F2941D0FB
:1003C0009E2904D13EE0AA293CD0AF293AD0022090
:1003D000FFF75AFF607B2022B4E71BE0BDE87040C6
:1003E00001F086BBBDE8704001F0A0BABDE87040E6
:1003F00001F08ABBBDE8704001F0D2BABDE87040A0
:1004000001F0C8BABDE8704001F03CBBBDE87040E7
:1004100001F000BBBDE8704001F07ABBD3E90112E6
:10042000BDE8704001F0C2BAD3E90112BDE87040E6
:1004300001F0A4BBBDE8704001F086BBBDE8704090
:1004400001F05CBABDE8704001F08ABACC0000202F
:100450003003002055534243300100202DE9F04184
:10046000184E194F194C1A4D26E000BF47F6FF7081
:100470002060288800F00F0107EB81003170D0F870
:10048000002C92B2130408D5D0F8002C40F68F73DC
:100490001A40C0F8002C0F4809E012060CD5D0F81D
:1004A000002C48F60F731A40C0F8002C0A4800EBE5
:1004B000810050F8040C8047206828800004D5D4BF
:1004C000BDE8F0812A00002000500040445C00405C
:1004D0002C01002010010020F40000202DE9F84F2D
:1004E000DFF834B14BF68F7648F6BF774A4C4B4D68
:1004F00040F68F7948F60F780BF1440BDFF820A116
:1005000032E000BF47F6FF7010600888454A10F0DF
:100510000F00107032D0444901EB8001D1F8002C5B
:1005200092B2009212040BD5D1F8002C02EA090213
:10053000C1F8002C3D4901EB800050F8040C8047C5
:100540000098000610D537483749007801EB800144
:10055000D1F8002C02EA0802C1F8002C344901EB62
:10056000800050F8040C8047DBF800005A465146E2
:10057000AAF800000004C5D4BDE8F88F2068C0F3D5
:100580000130000328802068C0F30110000168805A
:100590002068304080F4005020602068384080F0AF
:1005A000200020600888C00603D5206880B20106BC
:1005B00016D5206800EA0800206000F07BFD20E0EE
:1005C000890401D580F40050206020686988384093
:1005D000CA061ED4890601D580F020002060CBE732
:1005E000010506D5206800EA0900206001F072FCD0
:1005F00007E00004B8D5206800EA0900206001F097
:100600003DF8206829883040CA04D9D580F480504C
:10061000D6E780F01000DDE7005C00403A000020E3
:100620002C0100202A000020005000401001002072
:10063000F4000020810008480844D0F8001C490458
:1006400008D5D0F8001C48F68F72114041F4804163
:10065000C0F8001C704700000050004081000848AE
:100660000844D0F8001C490608D5D0F8001C48F60C
:100670008F72114041F04001C0F8001C704700002B
:1006800000500040810005480844D0F8001C48F69E
:100690008F621140C0F8001C7047000000500040FD
:1006A0002DE9F047DFF89480254F4FF03009D8F856
:1006B000001001F11005088A0E7A08B9042E04D042
:1006C000AC88A04215D8042614E01E480178012900
:1006D00003D00726102038802BE01B4A0021126827
:1006E0001A4B120403EBD2325160A7F8009001704C
:1006F0001FE00226844200D90446A96820468847A4
:100700008246002000F096FC01462246504601F049
:10071000B7FE2146002001F023FB28880C49001B6E
:100720002880688820446880A7F800904FF44050E3
:100730000880D8F800000672BDE8F0872C00002081
:100740003C00002026000020505C0040006000407B
:100750003A0000202DE9F047224EDFF88C80302748
:10076000356835F8100FA968A9B100B3AC88844288
:1007700000D904462046884781462888001B2880E7
:10078000688820446880002000F034FC014622463E
:10079000484600F093FF288848B114494FF4405070
:1007A00008800021084601F0DBFAA8F800702888CC
:1007B000A988884201D3032001E020B105203168D7
:1007C0000872BDE8F08731680620087208490020E9
:1007D0000968084A090402EBD1314860A8F80070A2
:1007E000EFE700002C0000203C0000203A00002031
:1007F000505C004000600040F8B55D4C5D4D09263E
:100800002068002729684278062A05D0AAB1082A5C
:100810004DD00A2A50D06BE00278520668D1807819
:10082000012804D0022804D0032804D060E0C9695C
:1008300056E0096A54E0496A52E04288B2BBC28875
:10084000022A55D102798ABB0278530601D18388E6
:1008500033B102F07F02012A04D0022A0CD047E013
:1008600045493DE08A69407900219047F0B9206808
:10087000807A0028F4D13BE0417901F00F0001F0CB
:1008800070020B063D4901EB8001D1F8001C03D535
:10089000C1F30111090102E0C1F301310903384B31
:1008A0001B78834224D90AB90029D9D120E00078E5
:1008B00040061DD1334913E0027802F07F02012A7D
:1008C00016D1827AA2B1428892B9027982B9C288DD
:1008D000012A0DD18A6940790021904740B92A49FF
:1008E00031B120684782816100208847002006E0FE
:1008F00029682068096940788847032813D021684F
:100900000A8AA2F57F43FF3B0BD002280ED06AB1C2
:100910000878000626D5C888009082420AD9088245
:1009200018E00E72F8BD20680672F8BD4FF008009E
:100930000872F8BD0ED22868144B90F82C00824241
:1009400001D21F7006E0B2FBF0F400FB142008B9DE
:1009500001201870286890F82C008882BDE8F840C3
:10096000FFF79EBE03200872094900030880F8BD06
:100970002C0000203000002099200008005000408A
:100980009C0100202D200008712000082600002076
:100990003A00002000F030BD00F062BD014908605F
:1009A000704700001404014030B51A498379026889
:1009B00053B30B6893430B600A1D13680468A34389
:1009C000136002790A441368046823431360114AD0
:1009D000083213680468A3431360131D1C6805687C
:1009E000AC431C604479102C05D021440A6800688F
:1009F00002430A6030BD1168046821431160196820
:100A000000680143196030BD0079084401689143D2
:100A1000016030BD0004014070B5314C22680021F6
:100A20004FF4FA754FF48070B2F5806F32D009DC64
:100A3000002A53D0012A44D0824224D0B2F5007F4C
:100A40000CD123E0B2F5006F2DD0B2F5805F2DD030
:100A5000B2F5005F2DD0B2F5804F21D0206021A0EB
:100A600000F0C6F8002001F051FF284601F0BEFD5D
:100A7000012001F04BFF01F0ABFC01F021FABDE8D1
:100A8000704001F091BC216016A005E001202060BB
:100A900016A001E0216017A0BDE8704000F0A8B8E2
:100AA000216016A007E0216016A004E0216017A0D5
:100AB00001E0216017A000F09BF8BDE8704000F055
:100AC000CBBE216015A000F093F8002001F01EFFBE
:100AD000284601F08BFDFFF7BDFB206070BD0000D4
:100AE0000000002052454144590000005355434343
:100AF00045535300554E4B4F574E00004C41524703
:100B000045000000464C4153480000004552524108
:100B1000505000004E4F4150500000004150505284
:100B2000554E000030B502004FF000034FF4006056
:100B300011D0B2F5805F2AD0B2F5584F27D0B2F568
:100B4000604F36D05FF001021446521C01F8013BA1
:100B50008442F9DB30BD244C0022A55C521C01F814
:100B6000015B3E2AF9DB4FF40074921C02E000BFE7
:100B700001F8013B1546521CA542F9DB02E000BF1B
:100B800001F8013B1446521C8442F9DB30BD164C7F
:100B90000022241FA55C521C01F8015B042AF9DB2A
:100BA00002E000BF01F8013B1446521C8442F9DB0D
:100BB00030BD0E4C0022A55C521C01F8015B0B2AD3
:100BC000F9DB094C00223E34A55C521C01F8015BA4
:100BD0002F2AF9DB0B3201E001F8013B1446521CCD
:100BE0008442F9DB30BD0000DE290008000200204D
:100BF00010B50446FFF7DCFAC2B20020084905E050
:100C0000235C0B54401CC0B2082808D29042F7D392
:100C10002022082803D20A54401CC0B2F9E710BDB4
:100C20000002002010B568B1B0F5805F0AD0B0F5C1
:100C3000584F07D0B0F5604F07D0B0F5B03F01D3A3
:100C400000F00CF84FF4006010BD00F0F1F801F076
:100C500023FE01490861F5E7EC0100202DE9F74F7B
:100C6000DFF8ACA16B4C84B0DAF81C902078164603
:100C70000AF116074FF4804B90B9FF2020706648A8
:100C80000088A0804FF40060BBFBF0F26080A18878
:100C9000C2EB5102E2806FF0784201FB0020E0607D
:100CA0005B48032208305DA18046FFF788FA5C4D5F
:100CB00070B103225BA14046FFF781FA002865D09E
:100CC000032259A14046FFF77AFA4FF4806079E099
:100CD00000200090E1886088A0464143DAF81C00BB
:100CE000814251D3002441E0B8F80210DFF83CA162
:100CF000B4FBF1F201FB124202EB0A03B8F8082040
:100D0000404602FB0133534503D3D0F80CC0634582
:100D100003D94FF4805028602AE0DFF810C1CCF1ED
:100D2000000C6344B3FBF1F001FB103050B902FB3F
:100D300001A1521C0091A8F8082000F0E9F80098E1
:100D400000F098F800F0E4F8B8F80200B4FBF0F115
:100D500000FB11410098084405990A5D2144497837
:100D600002EB012189B200F0B7F8A41CB442BBD356
:100D7000386830443860484545DB00203860A8F8C2
:100D800008004FF400701DE058461BE0002738E0D3
:100D90000598C15D206901F043FC10F0FF0002D00E
:100DA00002282AD02CE06946206901F05DFD18B3C5
:100DB0001E480099814203D30846E168884203D95E
:100DC0004FF4805028601EE0014618484042084415
:100DD0006188B0FBF1F201FB120020B900F098F835
:100DE000009800F047F800F093F89DF808004208DA
:100DF000DDE9000100F012FF02E04FF4007028600E
:100E00007F1CB742C4D307B03046BDE8F08F000066
:100E1000600B0020EC010020E0F7FF1F42494E006C
:100E2000000000204845580053454300004000089A
:100E300010B5022318021446403100E02031CA7A6E
:100E4000202A03D01A465B1C8242F7D3834208D87B
:100E500020220748FFF788F905490020C882088347
:100E600003E020210248FFF798F9204610BD00005A
:100E7000600B002070B505464FF43026304600F078
:100E800053F8042811D1094C206940F00200206178
:100E90006561206940F040002061304600F044F870
:100EA000216941F6FD721140216170BD00200240B0
:100EB00008490420CA68D20701D001207047CA68D7
:100EC000520701D502207047C968C906FBD5032027
:100ED0007047000000200240F0B506464FF400378E
:100EE0000D46384600F020F804280DD1074C206943
:100EF00040F0010020613580384600F015F8216986
:100F000041F6FE7211402161F0BD00000020024058
:100F10000348024941600349416070472301674526
:100F200000200240AB89EFCD00B50346FFF7C0FFBC
:100F300003E000BFFFF7BCFF5B1E012803D0002BBE
:100F400000D1052000BD002BF4D1FAE7F0B5CA7836
:100F5000002502F00F03D20601D58A7813430A78E0
:100F60004FF00F0E12F0FF0F4FF001021CD004687B
:100F70000F8802FA05F63740B74211D14FEA850CC7
:100F80000EFA0CF724EA070703FA0CF43C43CF7877
:100F9000282F02D0482F02D002E0466100E006610F
:100FA0006D1C082DE4D304600C88FF2C1ED9446806
:100FB0005FF0000606F1080702FA07F50F882F40D8
:100FC000AF420FD14FEA860C0EFA0CF7BC4303FA7E
:100FD0000CF73C43CF78282F00D14561CF78482FBC
:100FE00000D10561761C082EE4D34460F0BD016198
:100FF000704700000549096889B201EBC000044947
:1010000001EB4000008980B270470000505C004056
:10101000006000400549096889B201EBC00004493D
:1010200001EB40008089C0F309007047505C00402C
:10103000006000400449096889B201EBC00003491F
:1010400031F8100080B27047505C004000600040F2
:1010500008B104487047044901200968088200204B
:1010600070470000300100202C0000200F4810B510
:101070000168001D0368001D0268002915D00C4896
:101080000C0A817004710C0C8471090E0172837258
:10109000190A0173190C8173190E01748274110AF3
:1010A0000175110C8175110E017610BDE8F7FF1F57
:1010B000D800002010B5154C2168087A022804D009
:1010C000042802D0062805D018E0FFF7E9FA2068C6
:1010D000007A14E0487805280CD10878400609D138
:1010E00001F0C8F92068C07800F0B4FD0848006835
:1010F000006A8047074800688068804708202168A8
:101100000872BDE8104000F0E9BA00002C00002091
:10111000340000203000002038B50121402000F0CC
:1011200021FB2020ADF8000010208DF803000320E3
:10113000054C8DF8020069462046FFF707FF202185
:101140002046FFF754FF38BD001801400249012036
:10115000C1F89401704700000000234202490020BA
:10116000C1F89401704700000000234201004FF0D5
:1011700001000CD106494FF448400860091F4FF4A4
:1011800000600860091F4FF0C860086000207047C9
:101190004800002070B50D46010016461C464FF071
:1011A00001000CD11A4631462846FFF7BBFC28B98E
:1011B000034862083146284400F012FD002070BD4B
:1011C0000040000870B50D46010014464FF00100C4
:1011D00005D11A4621462846FFF724FD002070BDA0
:1011E0000D4900B509680A7802F07F02212A08D16A
:1011F000FE2806D1488820B9888810B9C8880128F7
:1012000001D0022000BD0548886100204882FFF718
:101210001FFF002000BD00002C000020511000081E
:10122000014900F017BF00003C010020014900F017
:1012300011BF00003401002005490968C97805295B
:1012400001D900207047034A02EBC10100F002BF40
:101250002C0000207401002009B9002800D00220D1
:10126000704700000F4910B509680A7802F07F0244
:10127000212A07D1FF2805D1488818B9888808B9DC
:10128000C88808B1022010BD0120FFF7E7F902204D
:10129000FFF7D0F9054904480860054900200870A7
:1012A00010BD00002C0000205553424330030020A5
:1012B000CC00002070B53148002532498572304895
:1012C0000968C0794872284600F0BCFC4FF40071F0
:1012D000002000F069FD2021002000F04FFD1821C2
:1012E000002000F0D7FC284C002014F82C1F00F040
:1012F000E1FC5821002000F023FD0020FFF7C2F997
:10130000002000F00DFD0021012000F04DFD98218E
:10131000012000F015FD2021012000F02FFD00210B
:10132000012000F0E7FC0021022000F03DFDD82163
:10133000022000F0AFFC2178022000F0BBFC4FF44B
:101340004051022000F0D6FC0021022000F016FDE2
:101350002178002000F0AEFC002000F0E1FC00202D
:1013600000F078FC0949012008600A490848086033
:1013700009480570BDE8704001F07AB8D402002039
:101380006A2900082C00002044010020C40100202C
:101390005553424330030020CC0000207047704773
:1013A00010B5FFF763FE094800240068847200F05E
:1013B000B7F90748046007494FF40440088004491E
:1013C000091F08600448046010BD00002C000020C4
:1013D000445C004038000020C40100200448054956
:1013E0000068884202D00220FEF74EBF704700001E
:1013F0003003002055534243164810B50178164B70
:1014000041F0100101701A78022A0AD04FF44054BA
:10141000032A14D0042A01D0052A1AD100201870FA
:1014200011E00E4AD47B282C13D141F00201017047
:10143000507BD3E90112BDE8104000F0B7BA01219A
:10144000002000F013FD2146BDE81040022000F00E
:1014500051BC10BDC9010020CC0000203003002089
:101460002DE9F0411B4C1C4E207840F010002070FC
:10147000F77B0220FFF7CEFD184D0246D821688089
:10148000A6F1400000F01AF9287818B1012805D01B
:10149000022006E0BDE8F041FEF714BF2A2F0DD070
:1014A0000120FEF7F1FE707B2422052100F002FDF1
:1014B000BDE8F0410021022000F0D8BC207840F0C7
:1014C00001002070D5E90112707BBDE8F04100F009
:1014D00055BB0000C901002030030020CC000020D3
:1014E000094810B50068807A00280BD0074905200C
:1014F00008600120FFF7B2F80220FFF79BF80449CB
:101500000020087010BD00002C000020C401002045
:10151000CC0000200149042008607047C40100206D
:1015200070474FF4A06000F033B8000070B50F238F
:10153000C47801780122F4B1144C2468457804F48D
:10154000E064C4F5E064240AC4F10406E34084784E
:10155000B5401C402C4301F1E021230181F8003407
:10156000007800F01F018A404009800000F1E0206F
:10157000C0F8002170BD01F01F00824048098000C2
:1015800000F1E020C0F8802170BD00000CED00E00B
:101590000249084302490860704700000000FA054C
:1015A0000CED00E070B5304D2868017844784A06AB
:1015B00006D001F07F0001282BD002282ED038E081
:1015C000092C06D0052C07D0032C0ED0012C17D0E7
:1015D0002FE000F0A7FD2BE0C1787F2931D881787A
:1015E00079BB818869BB807A2AE0C178012920D142
:1015F0008188F1B9407A80061BD500F0AFFD17E075
:10160000C178012915D1818899B9407A80060AD418
:101610000FE00B2C0DD100F0F3FD09E0012C02D0FE
:10162000032C03D005E000F089FC01E000F0A8FDE8
:1016300058B10E492046096849698847032802D0F5
:1016400018B108200DE009200BE0094A062000210E
:101650001268084B120403EBD2325160064A302163
:1016600011802968087270BD2C0000203000002015
:10167000505C0040006000403C00002010B50D4C64
:101680002068007A032804D0052802D0072805D056
:1016900008E0FFF75FF82068007A04E00648006879
:1016A000C0688047082021680872BDE8104000F03B
:1016B00015B800002C00002030000020064B521C02
:1016C000520803EB410105D031F8043B20F8023BFE
:1016D000521EF9D170470000006000400C4810B560
:1016E00090F82C10002000F0E5FA0A480068007A13
:1016F000082802D0092809D006E007494FF4805095
:101700000880064910200880002010BD012010BD6F
:10171000440100202C0000203A0000203C00002062
:1017200010B5012000F036FE0648012101600021BD
:10173000054A0160031D19604FF4E05111800160FA
:10174000002010BD405C004038000020044A002901
:10175000D16901D0014300E08143D16170470000AD
:1017600000100240044A0029916901D0014300E0C1
:101770008143916170470000001002400149C1F8A7
:10178000D80070470000424270B52E4C06462E4DE0
:10179000207810B1012808D044E055F826004143D4
:1017A0005043C4E9031001202070606860B12748ED
:1017B000E16940220844982100F062FE60684038E8
:1017C0006060E069403018E035F826001F4A83B2B7
:1017D0003046E168FFF7DEFC10F0FF0F03D06078C1
:1017E00040F00800607040229821184800F048FE40
:1017F00055F82600403860604020E061402101201B
:1018000000F0AEFA3021012000F0B8FAE068403074
:10181000E0602069403820610D488168403981606E
:10182000FFF79CFC206900280AD16060E061094A4A
:101830000321E06011702070BDE87040FFF786BCA6
:1018400070BD0000C801002044000020600300209B
:1018500050030020CC00002010B54FF4FA7420464D
:1018600000F0C4FE002001F051F8204600F0BEFE5A
:10187000012001F04BF800F0ABFD00F021FBBDE8CA
:10188000104000F091BD000070B5184C1A4454F897
:101890002040A2420DD92A2902D10220FEF7F4FCF1
:1018A0000020FEF7F1FC1249052221208A700873FE
:1018B00011E0114D0F4C55F82000A26858438242A8
:1018C00011D02A290DD00020FEF7DEFC607B2422F7
:1018D000052100F0EFFA0021012000F0C7FA0020F6
:1018E00070BD0220F0E7012070BD0000480000201C
:1018F000A5000020300300204400002010B5FFF7B1
:1019000035FC00280ED008483A220221407B00F026
:10191000D1FA0121084600F0A9FABDE810400020E4
:10192000FEF7B2BC10BD00003003002008490A7C5D
:10193000D20702D00748052105E030B10648C97C2E
:10194000242900D9242100F0B3BC0448F7E70000A3
:10195000300300204C0000207500002051000020C2
:1019600010B50B4CA06810B1207B000601D50020FB
:1019700000E00220FEF788FC607B2022052100F0B9
:1019800099FA0021BDE81040012000F06FBA000074
:10199000300300200821014800F08ABC9D0000208F
:1019A0000421014800F084BC990000202DE9F04199
:1019B000164D8046164628780F4630B1022823D1AE
:1019C0004046BDE8F041FFF7DFBE114C13460A4622
:1019D000607B2821FFF758FF002815D0207B0006E8
:1019E0004FF0020003D5287032463946E8E7FEF78B
:1019F0004BFC607B2422052100F05CFABDE8F0413D
:101A00000121084600F032BABDE8F081CC00002088
:101A10003003002010B50446FFF7A8FB70B115484D
:101A20003A220221407B00F045FA0121084600F0ED
:101A30001DFABDE810400020FEF726BC0E480F49F5
:101A400050F82420521E100E0870100C4870100A16
:101A500088700B48CA7050F82400020E0A71020CFC
:101A60004A71020A8A71C871BDE810400821034812
:101A700000F01EBC3003002048000020B70000200A
:101A80004400002010B50446FFF770FB70B1144805
:101A90003A220221407B00F00DFA0121084600F0B5
:101AA000E5F9BDE810400020FEF7EEBB0D480E49F9
:101AB00050F82420100E0871100C4871100A88711B
:101AC0000A48CA7150F82400020C4A72020A8A724B
:101AD000C872BDE810400C21034800F0E9BB0000CB
:101AE0003003002048000020BF00002044000020F8
:101AF0000348C17C122900D91221024800F0D8BB4A
:101B000030030020A50000200121002000F0AEB924
:101B100010B5FFF72BFB70B10A483A220221407B37
:101B200000F0C8F90121084600F0A0F9BDE8104016
:101B30000020FEF7A9BB0121BDE81040002000F005
:101B400095B900003003002010B50B4CA06828B9EF
:101B5000207C400702D40121002009E00220FEF78A
:101B600093FB607B2422052100F0A4F900210120D1
:101B7000BDE8104000F07AB93003002070B5164D72
:101B80002B782BB1012B26D1BDE8704000F08EBC24
:101B9000124C13460A46607B2A21FFF775FE002887
:101BA00019D0207B000608D401202870BDE87040C1
:101BB0004FF44051022000F09DB80020FEF764FB76
:101BC000607B2422052100F075F9BDE870400021FA
:101BD000012000F04BB970BDCC0000203003002084
:101BE0000D4B10B598420AD30020034604E000BF15
:101BF00021F81030401C80B29042F9D310BD002370
:101C000006E000BF30F8024B21F813405B1C9BB28A
:101C10009342F7D310BD000000A007082DE9F04162
:101C200016460F460546002408E000BF37F814109A
:101C30002846FFF751F9641CA4B2AD1CB442F5D399
:101C4000BDE8F081024920F00700086070470000FD
:101C5000505C0040F0B50C490C4D48F68F770A787F
:101C6000002109E0CEB205EB8603D3F8004C3C40DE
:101C70003443C3F8004C491C9142F3D3044940F06B
:101C800080000860F0BD00009C0100200050004072
:101C90004C5C0040054A21F00101126892B202EB4F
:101CA000C000034A02EB400081607047505C004076
:101CB000006000400D4A12683E2992B202EBC0005B
:101CC0000B4A02EB400209D94809C90601D1401E5E
:101CD00080B24FF4004141EA802004E04808C9077F
:101CE00000D0401C8002106070470000505C004033
:101CF0000C600040820009480244D2F8000C4BF608
:101D00008F731840CB0401D580F48050890401D52D
:101D100080F40050C2F8000C7047000000500040F2
:101D2000810006480144D1F8000C4BF68F72104038
:101D300080F44050C1F8000C704700000050004093
:101D4000054A21F00101126892B202EBC000034A79
:101D500042F8101070470000505C004000600040E6
:101D6000044A126892B202EBC000034A02EB400040
:101D700041607047505C00400060004082000948AC
:101D80000244D2F8000C48F6BF731840CB0601D5C8
:101D900080F01000890601D580F02000C2F8000C08
:101DA0007047000000500040820005480244D2F80D
:101DB000000C48F68F1318400843C2F8000C704717
:101DC000005000400CB500212648019100910268A6
:101DD00042F4803202604FF4A063026802F40032E1
:101DE0000092019A521C0192009A12B9019A9A42E9
:101DF000F3D10268920333D5012100911A490A6890
:101E000042F010020A600A6822F003020A600A68BF
:101E100042F002020A6041684160416841604168E5
:101E200041F480614160416821F47C114160416866
:101E300041F4E8114160016841F08071016001687E
:101E40008901FCD5416821F003014160416841F0FE
:101E5000020141604168C1F381010229FAD10CBD40
:101E600000910CBD001002400020024010B50C464D
:101E70000E490D4A0A6008730D2298210B4800F0A4
:101E8000FFFA0D210120FFF76BFF09480521002C07
:101E9000017007D0042101703021BDE810400120FD
:101EA000FFF76CBF10BD0000555342535003002094
:101EB000CC0000200148817002737047A50000200B
:101EC00010B50020FFF75AFC0121BDE81040C805FD
:101ED000FFF73CBC70B516480068174D0004C10BF5
:101EE00014480144098989B200EB41042868017A49
:101EF00009290FD02178017061784170A088FEF720
:101F0000DCF9296848802089FEF7D7F9296888809C
:101F1000A089C880286801210172C08828B1FEF715
:101F20006BFCBDE87040FFF7D9BBFFF73BFBF8E760
:101F3000505C0040006000402C0000202DE9F04182
:101F400035480068017811F07F0102D0022905D0E0
:101F50005FE0417A01F0DF01417249E04188E9BB6D
:101F60000179D9BB41792E4D21F080040A0605EB99
:101F700084022A4BD2F8002C03D5C2F301121201BD
:101F800002E0C2F3013212031E782346A64240D972
:101F900022B3807A10B308064FEA84000ED5284495
:101FA000D0F8000CC0F3011001281DD11846FEF72F
:101FB00055FB20463021FFF7E1FE15E04619D6F823
:101FC000000CC0F3013001280ED14BF68F7794B18D
:101FD0001846FEF72FFBD6F8000C00E019E0384059
:101FE00080F44050C6F8000C0E48006840698047F5
:101FF0000020BDE8F0810C4890F82C100020FFF77D
:1020000059FED5F8000C384080F44050C5F8000C5B
:10201000EAE70220EDE700002C0000209C010020F0
:1020200000500040340000204401002010B5074C4F
:1020300030B1074800680068804720680A3010BD4A
:10204000216801200882002010BD00002C00002023
:1020500034000020054A13685A8A10B108681044F9
:1020600070478888801A1882002070472C00002052
:1020700010B5074C30B10748006880688047206879
:102080000C3010BD216801200882002010BD000026
:102090002C000020340000201E4910B5096860B1F2
:1020A0001D48002202800A7853060AD002F07F02FF
:1020B000012A18D0022A18D001E00220088200204C
:1020C00010BD497A8A0603D5027842F002020270F6
:1020D000490603D5017801F0FE0102E0017841F0E4
:1020E0000101017011E00C4810BD4A791107130677
:1020F0000A4A02EB9161D1F8001C02D5C1F301112B
:1021000001E0C1F301310129E8D005480068006908
:102110008047E8E72C000020280000200050004005
:10212000340000200A4810B500680A4AC178527885
:10213000914203D882780AB982880AB1022010BD80
:1021400081720548006840688047002010BD00008B
:102150002C0000209C01002034000020064810B50F
:102160000068417A41F02001417204480068C0696A
:102170008047002010BD00002C000020340000200B
:1021800070B51B481B4D0368597921F0800005EBA1
:1021900080000C06D0F8004C21F0800203D5C4F377
:1021A0000114240102E0C4F301342403124D2D78FC
:1021B00095420ED95A8862B95CB19A7A4AB1090639
:1021C000D0F8001C07D548F6BF72114081F010010D
:1021D00006E0022070BD4BF68F72114081F48051F1
:1021E000C0F8001C0548006880698047002070BD69
:1021F0002C000020005000409C01002034000020F2
:1022000010B50E4C0E4A20681268C1789269407968
:10221000904721688A7A22B118B9087908B9887874
:1022200008B1022010BD07480068C06880472068D8
:102230004179C172C1780173002010BD2C000020CB
:1022400030000020340000204FF0E021042808690D
:1022500003D020F004000861704740F00400FAE762
:102260000F4810B5016841F00101016041680D4A55
:102270001140416001680C4A11400160016821F47D
:1022800080210160416821F4FE0141604FF41F018B
:102290008160FFF797FD05494FF00060086010BDB1
:1022A000001002400000FFF8FFFFF6FE08ED00E01E
:1022B00010B50C460A46982100F0E2F821460120AC
:1022C000FFF74EFD30210120FFF758FD04490320A0
:1022D000087004488168091B81600021017310BDEA
:1022E000CC0000205003002070B5154C40F2255161
:1022F000204600F02BF800280ED0204600F045F8CC
:10230000C2B2104801880B0406D44C044FF00003FD
:1023100006D50A2A01D0038070BD41F400410DE0CA
:102320000D2A09D0C1F30D04074D491C89B22A5565
:102330000180C729EFD870BD41F48041018070BD94
:1023400000380140200000200C02002030B501F0D0
:102350001F0201240025C1F3421304FA02F2012BEB
:102360000FD0022B0FD0838A4FEA1121008813422D
:1023700004FA01F400EA040001D000B10125284666
:1023800030BD8389F0E7038AEEE78088C0F3080058
:1023900070477047024900B10120C1F894017047AD
:1023A00000002342FEF75AB80648054902220160A0
:1023B0000A72064A0449C0E9011208680047000091
:1023C000D40200202C00002044010020A0010020A5
:1023D0003EB54FF4A060FFF7DBF84FF480242046B1
:1023E000FEF7DCFA082001948DF8090001248DF82D
:1023F0000A4001A8FEF7D8FA14208DF800008DF8E5
:10240000014000258DF802508DF803406846FFF723
:102410008DF82A208DF800008DF801506846FFF7EE
:1024200085F83EBD70B50D4801680D4C21802188AE
:102430000C4D2A881140490505D54FF6FF31016042
:10244000094840688047208829880840000403D54F
:10245000BDE87040FEF742B870BD0000445C00402B
:102460002C0100203800002044010020FFF7DABFD3
:1024700070470000014901204860704700000020BB
:10248000094B10B5521C520803EB41010AD000BFA2
:1024900010F8013B521E10F8014B43EA042321F8C7
:1024A000043BF5D110BD0000006000402DE9F04173
:1024B000304CA3682678304F0025403316B1012EEA
:1024C00008D044E057F8206071435643C4E905162C
:1024D000012121702946DFF8A4E0294A256209E09C
:1024E0001EF80160D4F808C002F80C60A668761CDB
:1024F000A660491CA6689E42F2D3224E2162626900
:1025000031880A446261A3695B1AA36157F82010FD
:10251000B3FBF1F701FB17336BB92746A5608BB20C
:10252000511A174AFEF74EFE10F0FF0F03D07878CD
:1025300040F004007870144832888168891A8160FC
:102540004FF440510220FFF7D5FBFEF707FEA069CC
:1025500018B10E480078042809D1A5600121002097
:10256000FFF784FC2570BDE8F041FEF7EFBDBDE844
:10257000F0810000C801002044000020F00200208B
:1025800060030020CE00002050030020CC0000207B
:1025900002E008C8121F08C1002AFAD1704770472C
:1025A000002001E001C1121F002AFBD1704700008A
:1025B00010B56FF00400FFF747FE094809490068AD
:1025C000B0FBF1F0C1B2084801EB41020170C2EB6F
:1025D000C1114FF6FF7202EAC101418010BD000037
:1025E0000C00002000127A00220000200B494988CC
:1025F00048434FF0E021486100228A61086940F0B9
:10260000010008610869C30701D0C003FAD5086951
:1026100020F0010008618A6170470000220000205C
:102620002DE9F04104004FF001054FF0FF360DD0C9
:1026300094F86530042202278A48092B2ED2DFE85D
:1026400003F008103D5C80C02D2DF7003046BDE83A
:10265000F0813A2922D1012084F8650084F86A10BB
:10266000ACE094F86430C3F10203E15494F86410D0
:10267000491E11F0FF0184F86410EBD161782378D2
:10268000095C185C41EA001010F0FF0084F86B0050
:1026900005D0322870D804F8642F6770DFE030204E
:1026A00020706070A070E070207131206071462051
:1026B000A071E071082084F865003FE094F8642080
:1026C000C2F10402A15494F86410491E11F0FF01F4
:1026D00084F8641034D161782278095C125C41EA94
:1026E000021184F86C10E178A278095C105C41EA70
:1026F000001084F86D0003205EE094F86430C3F1AC
:102700000203E15494F86410491E11F0FF0184F8AB
:10271000641015D161782378095C185C41EA0010D7
:1027200010F0FF0084F8700003D0042801D00528C1
:1027300022D184F8652094F86B00400084F864008E
:102740008DE094F8642094F86B30C2EB4302A154FE
:1027500094F86410491E11F0FF0184F864107ED1D2
:1027600094F86B2004F171015206160E00222346E4
:102770005FEAC67C15D111E06DE000BF03EB420CAF
:1027800013F812E09CF801C01EF800E01CF800C02D
:102790004CEA0E1C01F802C0521CD2B2B2EB560F2A
:1027A000ECD394F87000042805D194F86B2004F160
:1027B0006600FDF7D9FC052084F8650084F8647094
:1027C0004DE094F86420C2F10202A15494F8641020
:1027D000491E11F0FF0184F8641040D1617822781D
:1027E000095C105C41EA0010C3B284F8D53094F85B
:1027F0006B1094F86C0094F86D200844104494F821
:1028000070201044C2B2002006E02518401C95F844
:102810007150C0B22A44D2B28142F6D8981810F052
:10282000FF0F18D1002084F86500054617E0FFE788
:1028300094F86400C0F10802D2B2A25C8A420AD1C4
:10284000401E10F0FF0084F8640008D1204600F01C
:1028500027F8022503E0204600F022F835462846F6
:10286000F5E600001B2A000890F870200AB100204D
:10287000704790F86D300B7090F86C304B7090F89A
:1028800067308B7090F86630CB7000F171024A604F
:1028900090F86B000872704700487047800B00206A
:1028A000D621FDF77ABC0000FFF782FEFEF734FC6C
:1028B000FEF737FE4FF4FA70FFF798FE002000F0A5
:1028C00025F84FF49670FFF791FE012000F01EF8F6
:1028D000FFF77EFDFFF7F4FAFFF766FD00250A4CCF
:1028E00001266420FFF782FEA068002808DD6168E9
:1028F0000A2905D1401EA060002801DC2660A560E1
:10290000FEF78AF8EDE700000000002010B504464D
:1029100001210420FEF726FF0C49086824B14FF678
:10292000FD721040086010BD80B240F002000860E7
:102930000748016821F47F210160016841F44C31AE
:10294000016004490020C1F8B00110BD405C0040A6
:102950000408014000002142120100020000004072
:102960008404225700020102030109022000010130
:1029700000C0FA090400000208065004070581029D
:10298000400000070502024000000403090416038A
:1029900049006F0054002D0053007400750064005E
:1029A00069006F00260355005300420020004D00CF
:1029B0005300440042006F006F00740020004C0080
:1029C0006F00610064006500720010035300540042
:1029D00020004D00610073007300F8FFFFFFEB3C27
:1029E000904D53444F53352E30000804020002002E
:1029F000020000F80D003F00FF000000000000C8CA
:102A00000000800029BDA5DD024E4F204E414D45FE
:102A100020202020464154313620202020004B9C8D
:102A2000429238923800009D429238000000000027
:102A300000424F4F544C4F41444552200800000083
:102A4000000000000000009D4292380001020304D3
:102A500005060708093A3B3C3D3E3F400A0B0C0D7A
:102A60000E0F0000842A0008000000200C02000065
:102A7000FC010008582B00080C0200204C0E00003E
:102A8000A025000841320A421E84A24A04000932ED
:102A9000010203040607080935800202202D535461
:102AA0004D2001180E534420466C61736820446920
:102AB000736B10ED312E302024BC4E414E2629245C
:102AC00042036206627029A8011242080210021431
:102AD0001A03531254124D123312321A2002C11328
:102AE00095090C18082115040A15992081135829F5
:102AF0003308121A6A08295A13A1131408B5121BB5
:102B0000089D081A9F0413E1111B0865101A590447
:102B10001A2D041A21041A39044132401A8A383213
:102B2000041A8E0832161AA408322622D833201A24
:102B30001ACA1032102303012978CBE114881ADD58
:102B400064690C9A15980134100C5245414459207F
:082B500020205458540000003D
:0400000508000131BD
:00000001FF
