:020000040800F2
:104000003010002001410008094100080B41000860
:104010000D4100080F410008114100080000000098
:104020000000000000000000000000001341000834
:104030001541000800000000174100081941000860
:104040001B4100081B4100081B4100081B410008E0
:104050001B4100081B4100081B4100081B410008D0
:104060001B4100081B4100081B4100081B410008C0
:104070001B4100081B4100081B4100081B410008B0
:104080001B4100081B4100081B4100083560000867
:10409000816000081B4100081B4100081B4100080B
:1040A0001B4100081B4100081B4100081B41000880
:1040B0001B4100081B4100081B4100081B41000870
:1040C0001B4100081B4100081B4100081B41000860
:1040D0001B410008795F00081B4100081B410008D4
:1040E0001B4100081B41000823600008DFF80CD0CA
:1040F00000F04AF800480047BD6400083010002076
:104100000648804706480047FEE7FEE7FEE7FEE771
:10411000FEE7FEE7FEE7FEE7FEE7FEE7F15E0008EA
:10412000ED40000840EA01039B0703D009E008C9FD
:10413000121F08C0042AFAD203E011F8013B00F86C
:10414000013B521EF9D27047D2B201E000F8012BB8
:10415000491EFBD270470022F6E710B513460A4607
:1041600004461946FFF7F0FF204610BD30B504465F
:104170000020034600E05B1C934203D2E05CCD5C70
:10418000401BF8D030BD0000064C074D06E0E0684B
:1041900040F0010394E8070098471034AC42F6D38E
:1041A000FFF7A8FF006600082066000870B58C18AD
:1041B00010F8015B15F0070301D110F8013B2A113B
:1041C00006D110F8012B03E010F8016B01F8016B28
:1041D0005B1EF9D12B0705D40023521E0DD401F824
:1041E000013BFAE710F8013BCB1A921C03E013F8ED
:1041F000015B01F8015B521EF9D5A142D8D3002022
:1042000070BD10B578B14FF48054012805D0022854
:104210000FD11021012001F003FC2146BDE8104020
:10422000022001F0B9BB1021BDE81040012001F0CF
:10423000F7BB10BDC1B2000A40EA01207047000080
:1042400070B5614B614C00205988A4F1400202E036
:10425000155C2554401C0D468842F9D35B486268C2
:1042600020301F2D4260A268826007D00220FFF735
:10427000C8FF00202060607B1A2221E0E17B282912
:1042800001D02A290AD1D4F81100227D00BA20F0E9
:10429000FF0010435860E08A40BA98604C4A20689A
:1042A000904252D14B4A607B1268904203D8A27B65
:1042B0000AB1102A0DD90220FFF7A3FF607B242248
:1042C000052101F049FCBDE870400021012001F00A
:1042D0001FBC252958D01ADC152971D00DDC0829FE
:1042E0006ED005DCB9B3032936D004292DD163E0A3
:1042F0000A2965D0122928D132E01A390A2924D294
:10430000DFE801F03632235E32232323233E8A295D
:1043100056D00EDC552953D006DC28293CD02A295A
:1043200040D02F2911D143E05A2925D088290CD11A
:1043300046E0A82944D004DC8F2941D09E2904D12D
:104340003EE0AA293CD0AF293AD00220FFF759FF1E
:10435000607B2022B4E71BE0BDE8704001F01ABA90
:10436000BDE8704001F034B9BDE8704001F01EBAFC
:10437000BDE8704001F066B9BDE8704001F05CB97D
:10438000BDE8704001F0D0B9BDE8704001F094B9CB
:10439000BDE8704001F00EBAD3E90112BDE87040EB
:1043A00001F056B9D3E90112BDE8704001F038BA06
:1043B000BDE8704001F01ABABDE8704001F0F0B8F5
:1043C000BDE8704001F01EB9C800002008030020BD
:1043D000555342432C0100202DE9F041184E194F4E
:1043E000194C1A4D26E000BF47F6FF702060288860
:1043F00000F00F0107EB81003170D0F8002C92B271
:10440000130408D5D0F8002C40F68F731A40C0F87A
:10441000002C0F4809E012060CD5D0F8002C48F605
:104420000F731A40C0F8002C0A4800EB810050F8C6
:10443000040C8047206828800004D5D4BDE8F081B2
:104440002600002000500040445C0040280100206D
:104450000C010020F00000202DE9F84FDFF834B106
:104460004BF68F7648F6BF774A4C4B4D40F68F7926
:1044700048F60F780BF1440BDFF820A132E000BFC3
:1044800047F6FF7010600888454A10F00F00107062
:1044900032D0444901EB8001D1F8002C92B2009255
:1044A00012040BD5D1F8002C02EA0902C1F8002C45
:1044B0003D4901EB800050F8040C8047009800064D
:1044C00010D537483749007801EB8001D1F8002C2E
:1044D00002EA0802C1F8002C344901EB800050F8D0
:1044E000040C8047DBF800005A465146AAF8000049
:1044F0000004C5D4BDE8F88F2068C0F30130000384
:1045000028802068C0F301100001688020683040D6
:1045100080F4005020602068384080F02000206047
:104520000888C00603D5206880B2010616D5206829
:1045300000EA0800206000F09BFC20E0890401D51F
:1045400080F400502060206869883840CA061ED474
:10455000890601D580F020002060CBE7010506D553
:10456000206800EA0900206001F0FCFA07E000047E
:10457000B8D5206800EA0900206000F0FBFE206842
:1045800029883040CA04D9D580F48050D6E780F01D
:104590001000DDE7005C004036000020280100200C
:1045A00026000020005000400C010020F0000020F8
:1045B000810008480844D0F8001C490408D5D0F808
:1045C000001C48F68F72114041F48041C0F8001C75
:1045D0007047000000500040810008480844D0F8AF
:1045E000001C490608D5D0F8001C48F68F7211400F
:1045F00041F04001C0F8001C70470000005000402E
:10460000810005480844D0F8001C48F68F6211402C
:10461000C0F8001C70470000005000402DE9F04732
:10462000DFF89480254F4FF03009D8F8001001F1E1
:104630001005088A0E7A08B9042E04D0AC88A0426E
:1046400015D8042614E01E480178012903D0072656
:10465000102038802BE01B4A002112681A4B1204EC
:1046600003EBD2325160A7F8009001701FE00226E0
:10467000844200D90446A968204688478246002023
:1046800000F0B6FB01462246504601F003FD2146EC
:10469000002001F0B7F928880C49001B28806888A1
:1046A00020446880A7F800904FF440500880D8F864
:1046B00000000672BDE8F0872800002038000020C6
:1046C00022000020505C00400060004036000020C6
:1046D0002DE9F047224EDFF88C803027356835F819
:1046E000100FA968A9B100B3AC88844200D9044670
:1046F0002046884781462888001B288068882044F7
:104700006880002000F054FB01462246484600F035
:1047100051FE288848B114494FF4405008800021C8
:10472000084601F06FF9A8F800702888A988884227
:1047300001D3032001E020B1052031680872BDE8F3
:10474000F087316806200872084900200968084A85
:10475000090402EBD1314860A8F80070EFE70000CF
:10476000280000203800002036000020505C004067
:1047700000600040F8B55D4C5D4D092620680027BB
:1047800029684278062A05D0AAB1082A4DD00A2AFB
:1047900050D06BE00278520668D18078012804D0AE
:1047A000022804D0032804D060E0C96956E0096AF1
:1047B00054E0496A52E04288B2BBC288022A55D10D
:1047C00002798ABB0278530601D1838833B102F0A3
:1047D0007F02012A04D0022A0CD047E045493DE07F
:1047E0008A69407900219047F0B92068807A0028D2
:1047F000F4D13BE0417901F00F0001F070020B06AB
:104800003D4901EB8001D1F8001C03D5C1F3011132
:10481000090102E0C1F301310903384B1B788342DF
:1048200024D90AB90029D9D120E0007840061DD149
:10483000334913E0027802F07F02012A16D1827A0E
:10484000A2B1428892B9027982B9C288012A0DD1F7
:104850008A6940790021904740B92A4931B12068DE
:104860004782816100208847002006E0296820688F
:10487000096940788847032813D021680A8AA2F57D
:104880007F43FF3B0BD002280ED06AB108780006A8
:1048900026D5C888009082420AD9088218E00E7294
:1048A000F8BD20680672F8BD4FF008000872F8BD28
:1048B0000ED22868144B90F82C00824201D21F704F
:1048C00006E0B2FBF0F400FB142008B901201870D8
:1048D000286890F82C008882BDE8F840FFF79EBE5B
:1048E00003200872094900030880F8BD2800002051
:1048F0002C000020295D0008005000409801002095
:10490000BD5C0008015D0008220000203600002088
:1049100000F044BC00F076BC30B502004FF000035C
:104920004FF4006011D0B2F5805F2AD0B2F5584F35
:1049300027D0B2F5604F36D05FF001021446521C0A
:1049400001F8013B8442F9DB30BD244C0022A55C18
:10495000521C01F8015B3E2AF9DB4FF40074921CF3
:1049600002E000BF01F8013B1546521CA542F9DBED
:1049700002E000BF01F8013B1446521C8442F9DBFF
:1049800030BD164C0022241FA55C521C01F8015BAF
:10499000042AF9DB02E000BF01F8013B1446521C77
:1049A0008442F9DB30BD0E4C0022A55C521C01F89C
:1049B000015B0B2AF9DB094C00223E34A55C521C3A
:1049C00001F8015B2F2AF9DB0B3201E001F8013B12
:1049D0001446521C8442F9DB30BD00007A650008A1
:1049E000D801002010B568B1B0F5805F0AD0B0F5ED
:1049F000584F07D0B0F5604F07D0B0F5B03F01D3A6
:104A000000F00CF84FF4006010BD00F0EFF801F07A
:104A10004DFD01490861F5E7C40100202DE9F74F7C
:104A20006A486B4C00F11607D0F81C90207884B0CF
:104A300016464FF480684FF4804A88B9FF202070F2
:104A400064480088A0804046BAFBF0F2A4F80280D7
:104A5000A1888A1AE2806FF0784201FB0820E060AA
:104A60005A48032208305CA10090FFF77FFB5B4DA2
:104A70004FF4805B68B1032259A10098FFF776FBE1
:104A8000002863D0032257A10098FFF76FFB404630
:104A900077E000200090E1886088A04641434B48C1
:104AA000C069814250D3002440E0B8F80220B8F831
:104AB00008C0B4FBF2F102FB11434B4940460B44E2
:104AC0000CFB0233E2468B4203D3D0F80CC06345A3
:104AD00002D9C5F800B02BE0DFF80CC1CCF1000C16
:104AE0006344B3FBF2F002FB103058B90AFB02102A
:104AF00000900AF10100A8F8080000F0E7F800981B
:104B000000F096F800F0E2F8B8F80200B4FBF0F11B
:104B100000FB11410098084405990A5D2144497839
:104B200002EB012189B200F0B5F8A41CB442BCD359
:104B3000386830443860484544DB00203860A8F8C5
:104B400008004FF400701CE050461AE0002737E0E0
:104B50000598C15D206901F06DFB10F0FF0002D0E7
:104B6000022829D02BE06946206901F087FC10B3A8
:104B70001D480099814203D30846E168884202D962
:104B8000584628601EE001461748404208446188A4
:104B9000B0FBF1F201FB120020B900F097F8009889
:104BA00000F046F800F092F89DF808004208DDE9B0
:104BB000000100F085FE02E04FF4007028607F1CC9
:104BC000B742C5D307B03046BDE8F08F380B0020A0
:104BD000C4010020E0F7FF1F42494E000000002002
:104BE00048455800534543000040000810B50223D3
:104BF00018021446403100E02031CA7A202A03D03E
:104C00001A465B1C8242F7D3834208D82022074809
:104C1000FFF788FA05490020C882088303E02021B5
:104C20000248FFF798FA204610BD0000380B00201C
:104C300070B505464FF43026304600F053F804288E
:104C400011D1094C206940F00200206165612069A2
:104C500040F040002061304600F044F8216941F600
:104C6000FD721140216170BD0020024008490420FE
:104C7000CA68D20701D001207047CA68520701D51F
:104C800002207047C968C906FBD5032070470000A1
:104C900000200240F0B506464FF400370D46384676
:104CA00000F020F804280DD1074C206940F00100E5
:104CB00020613580384600F015F8216941F6FE7212
:104CC00011402161F0BD000000200240034802496C
:104CD000416003494160704723016745002002405D
:104CE000AB89EFCD00B50346FFF7C0FF03E000BF7F
:104CF000FFF7BCFF5B1E012803D0002B00D105206D
:104D000000BD002BF4D1FAE7F0B5CA78002502F017
:104D10000F03D20601D58A7813430A784FF00F0E9D
:104D200012F0FF0F4FF001021CD004680F8802FA46
:104D300005F63740B74211D14FEA850C0EFA0CF751
:104D400024EA070703FA0CF43C43CF78282F02D05B
:104D5000482F02D002E0466100E006616D1C082D7C
:104D6000E4D304600C88FF2C1ED944685FF0000671
:104D700006F1080702FA07F50F882F40AF420FD15E
:104D80004FEA860C0EFA0CF7BC4303FA0CF73C43CF
:104D9000CF78282F00D14561CF78482F00D1056109
:104DA000761C082EE4D34460F0BD0161704700001A
:104DB0000549096889B201EBC000044901EB4000D4
:104DC000008980B270470000505C004000600040E5
:104DD0000549096889B201EBC000044901EB4000B4
:104DE0008089C0F309007047505C004000600040BB
:104DF0000449096889B201EBC000034931F8100089
:104E000080B27047505C00400060004008B1044828
:104E1000704704490120096808820020704700009B
:104E20002C010020280000200F4810B50168001D4B
:104E30000368001D0268002915D00C480C0A817017
:104E400004710C0C8471090E01728372190A0173CA
:104E5000190C8173190E01748274110A0175110CF9
:104E60008175110E017610BDE8F7FF1FD4000020F8
:104E700010B5154C2168087A022804D0042802D005
:104E8000062805D018E0FFF7C9FB2068007A14E077
:104E9000487805280CD10878400609D101F0F4F8CB
:104EA0002068C07800F028FD08480068006A804744
:104EB0000748006880688047082021680872BDE8BC
:104EC000104000F087BA00002800002030000020C9
:104ED0002C00002038B50121102000F0B3FA4FF467
:104EE0000054ADF8004010208DF803000320064D5B
:104EF0008DF8020069462846FFF706FF214628463E
:104F0000FFF753FF38BD00000010014002490120A7
:104F1000C1F8B4017047000000002242024900209D
:104F2000C1F8B401704700000000224201004FF0B8
:104F300001000CD106494FF448400860091F4FF4A6
:104F400000600860091F4FF0C860086000207047CB
:104F50004400002070B50D46010016461C464FF077
:104F600001000CD11A4631462846FFF7D5FC28B976
:104F7000034862083146284400F084FC002070BDDC
:104F80000040000870B50D46010014464FF00100C6
:104F900005D11A4621462846FFF724FD002070BDA2
:104FA0000D4900B509680A7802F07F02212A08D16C
:104FB000FE2806D1488820B9888810B9C8880128F9
:104FC00001D0022000BD0548886100204882FFF71B
:104FD0001DFF002000BD0000280000200D4E00082D
:104FE000014900F07FBE000038010020014900F0B7
:104FF00079BE00003001002005490968C9780529FB
:1050000001D900207047034A02EBC10100F06ABEDB
:10501000280000207001002009B9002800D00220DB
:10502000704700000F4910B509680A7802F07F0246
:10503000212A07D1FF2805D1488818B9888808B9DE
:10504000C88808B1022010BD0120FFF7C5FA022070
:10505000FFF7AEFA054904480860054900200870CA
:1050600010BD0000280000205553424308030020D3
:10507000C800002070B5314800253249857230489B
:105080000968C0794872284600F02EFC4FF4007180
:10509000002000F0DBFC2021002000F0C1FC1821E2
:1050A000002000F049FC284C002014F82C1F00F0D0
:1050B00053FC5821002000F095FC0020FFF7A0FAD7
:1050C000002000F07FFC0021012000F0BFFC9821AF
:1050D000012000F087FC2021012000F0A1FC00212C
:1050E000012000F059FC0021022000F0AFFCD82183
:1050F000022000F021FC2178022000F02DFC4FF46A
:105100004051022000F048FC0021022000F088FC01
:105110002178002000F020FC002000F053FC00204B
:1051200000F0EAFB0949012008600A4908480860C4
:1051300009480570BDE8704000F0A4BFAC02002033
:105140000665000828000020400100209C01002086
:105150005553424308030020C800002070477047A1
:1051600010B5FFF761FE094800240068847200F062
:1051700053F90748046007494FF404400880044984
:10518000091F08600448046010BD000028000020CA
:10519000445C0040340000209C010020164810B5FB
:1051A0000178164B41F0100101701A78022A0AD0DA
:1051B0004FF44054032A14D0042A01D0052A1AD1EE
:1051C0000020187011E00E4AD47B282C13D141F036
:1051D00002010170507BD3E90112BDE8104000F0DC
:1051E00037BA0121002000F093FC2146BDE81040B1
:1051F000022000F0D1BB10BDA1010020C80000209A
:10520000080300202DE9F0411B4C1C4E207840F093
:1052100010002070F77B0220FFF7DAFD184D0246E0
:10522000D8216880A6F1400000F0C4F8287818B1B1
:10523000012805D0022006E0BDE8F041FFF700B8E4
:105240002A2F0DD00120FEF7DCFF707B24220521E0
:1052500000F082FCBDE8F0410021022000F058BCC3
:10526000207840F001002070D5E90112707BBDE884
:10527000F04100F0D5BA0000A10100200803002091
:10528000C800002070470000024A11400143024854
:105290000160704780FFFF1F08ED00E070B5304DE2
:1052A0002868017844784A0606D001F07F0001287A
:1052B0002BD002282ED038E0092C06D0052C07D0A0
:1052C000032C0ED0012C17D02FE000F073FD2BE043
:1052D000C1787F2931D8817879BB818869BB807A90
:1052E0002AE0C178012920D18188F1B9407A80066D
:1052F0001BD500F07BFD17E0C178012915D181880D
:1053000099B9407A80060AD40FE00B2C0DD100F039
:10531000BFFD09E0012C02D0032C03D005E000F012
:1053200055FC01E000F074FD58B10E4920460968B3
:1053300049698847032802D018B108200DE00920E8
:105340000BE0094A062000211268084B120403EB07
:10535000D2325160064A302111802968087270BD2E
:10536000280000202C000020505C0040006000401D
:105370003800002010B50D4C2068007A032804D0B6
:10538000052802D0072805D008E0FFF7A1F920681A
:10539000007A04E006480068C06880470820216859
:1053A0000872BDE8104000F015B800002800002089
:1053B0002C000020064B521C520803EB410105D083
:1053C00031F8043B20F8023B521EF9D1704700002F
:1053D000006000400C4810B590F82C10002000F040
:1053E000BBFA0A480068007A082802D0092809D0C8
:1053F00006E007494FF480500880064910200880D5
:10540000002010BD012010BD400100202800002018
:10541000360000203800002010B5012000F002FE08
:105420000648012101600021054A0160031D196041
:105430004FF4E05111800160002010BD405C00403D
:1054400034000020044A0029916901D0014300E0A2
:1054500081439161704700000010024070B52E4CEE
:1054600006462E4D207810B1012808D044E055F8AA
:10547000260041435043C4E90310012020706068B6
:1054800060B12748E16940220844982100F002FEFB
:10549000606840386060E069403018E035F8260008
:1054A0001F4A83B23046E168FFF754FD10F0FF0F4A
:1054B00003D0607840F008006070402298211848BE
:1054C00000F0E8FD55F82600403860604020E061BB
:1054D0004021012000F096FA3021012000F0A0FACE
:1054E000E0684030E0602069403820610D48816804
:1054F00040398160FFF712FD206900280AD1606001
:10550000E061094A0321E06011702070BDE870403D
:10551000FFF7FCBC70BD0000A0010020400000208F
:105520003803002028030020C800002070B5184C64
:105530001A4454F82040A2420DD92A2902D102204F
:10554000FEF75FFE0020FEF75CFE124905222120D7
:105550008A70087311E0114D0F4C55F82000A268B5
:105560005843824211D02A290DD00020FEF749FE6F
:10557000607B2422052100F0EFFA0021012000F0D9
:10558000C7FA002070BD0220F0E7012070BD0000C6
:1055900044000020A100002008030020400000205B
:1055A00010B5FFF7C3FC00280ED008483A220221AC
:1055B000407B00F0D1FA0121084600F0A9FABDE8CD
:1055C00010400020FEF71DBE10BD000008030020A3
:1055D00008490A7CD20702D00748052105E030B10E
:1055E0000648C97C242900D9242100F0A9BC04481C
:1055F000F7E70000080300204800002071000020A9
:105600004D00002010B50B4CA06810B1207B0006A7
:1056100001D5002000E00220FEF7F3FD607B202290
:10562000052100F099FA0021BDE81040012000F0AA
:105630006FBA0000080300200821014800F080BC78
:10564000990000200421014800F07ABC9500002058
:105650002DE9F041164D8046164628780F4630B1A8
:10566000022823D14046BDE8F041FFF7F7BE114CB8
:1056700013460A46607B2821FFF758FF002815D003
:10568000207B00064FF0020003D5287032463946D1
:10569000E8E7FEF7B6FD607B2422052100F05CFA06
:1056A000BDE8F0410121084600F032BABDE8F081C2
:1056B000C80000200803002010B50446FFF736FCA0
:1056C00070B115483A220221407B00F045FA0121D1
:1056D000084600F01DFABDE810400020FEF791BD1D
:1056E0000E480F4950F82420521E100E0870100C5E
:1056F0004870100A88700B48CA7050F82400020ED7
:105700000A71020C4A71020A8A71C871BDE8104020
:105710000821034800F014BC0803002044000020C6
:10572000B30000204000002010B50446FFF7FEFB48
:1057300070B114483A220221407B00F00DFA012199
:10574000084600F0E5F9BDE810400020FEF759BD1D
:105750000D480E4950F82420100E0871100C4871A5
:10576000100A88710A48CA7150F82400020C4A7263
:10577000020A8A72C872BDE810400C21034800F08A
:10578000DFBB00000803002044000020BB00002015
:10579000400000200348C17C122900D91221024890
:1057A00000F0CEBB08030020A10000200121002052
:1057B00000F0AEB910B5FFF7B9FB70B10A483A2254
:1057C0000221407B00F0C8F90121084600F0A0F951
:1057D000BDE810400020FEF714BD0121BDE81040D7
:1057E000002000F095B900000803002010B50B4C14
:1057F000A06828B9207C400702D40121002009E0DC
:105800000220FEF7FEFC607B2422052100F0A4F9B3
:1058100000210120BDE8104000F07AB90803002003
:1058200070B5164D2B782BB1012B26D1BDE87040F9
:1058300000F046BC124C13460A46607B2A21FFF753
:1058400075FE002819D0207B000608D4012028709E
:10585000BDE870404FF44051022000F09DB8002098
:10586000FEF7CFFC607B2422052100F075F9BDE82E
:1058700070400021012000F04BB970BDC80000202D
:10588000080300200D4B10B598420AD300200346B0
:1058900004E000BF21F81030401C80B29042F9D3E0
:1058A00010BD002306E000BF30F8024B21F8134082
:1058B0005B1C9BB29342F7D310BD000000A0070809
:1058C0002DE9F04116460F460546002408E000BFCA
:1058D00037F814102846FFF7DDF9641CA4B2AD1C9C
:1058E000B442F5D3BDE8F081024920F0070008601A
:1058F00070470000505C0040F0B50C490C4D48F674
:105900008F770A78002109E0CEB205EB8603D3F841
:10591000004C3C403443C3F8004C491C9142F3D343
:10592000044940F080000860F0BD000098010020AC
:10593000005000404C5C0040054A21F00101126813
:1059400092B202EBC000034A02EB40008160704754
:10595000505C0040006000400D4A12683E2992B23F
:1059600002EBC0000B4A02EB400209D94809C90604
:1059700001D1401E80B24FF4004141EA802004E092
:105980004808C90700D0401C800210607047000022
:10599000505C00400C600040820009480244D2F88C
:1059A000000C4BF68F731840CB0401D580F4805067
:1059B000890401D580F40050C2F8000C7047000043
:1059C00000500040810006480144D1F8000C4BF61D
:1059D0008F72104080F44050C1F8000C70470000F6
:1059E00000500040054A21F00101126892B202EB1A
:1059F000C000034A42F8101070470000505C00409D
:105A000000600040044A126892B202EBC000034AF0
:105A100002EB400041607047505C00400060004075
:105A2000820009480244D2F8000C48F6BF731840BF
:105A3000CB0601D580F01000890601D580F020004A
:105A4000C2F8000C7047000000500040820005487A
:105A50000244D2F8000C48F68F1318400843C2F8ED
:105A6000000C7047005000400CB500212648019101
:105A70000091026842F4803202604FF4A063026831
:105A800002F400320092019A521C0192009A12B95B
:105A9000019A9A42F3D10268920333D50121009111
:105AA0001A490A6842F010020A600A6822F00302EA
:105AB0000A600A6842F002020A6041684160416877
:105AC0004160416841F480614160416821F47C118A
:105AD0004160416841F4E8114160016841F0807122
:105AE000016001688901FCD5416821F00301416032
:105AF000416841F0020141604168C1F3810102291E
:105B0000FAD10CBD00910CBD0010024000200240F3
:105B100010B50C460E490D4A0A6008730D229821F3
:105B20000B4800F0B7FA0D210120FFF76BFF094881
:105B30000521002C017007D0042101703021BDE83F
:105B400010400120FFF76CBF10BD000055534253B9
:105B500028030020C80000200148817002737047AC
:105B6000A100002070B516480068174D0004C10B55
:105B700014480144098989B200EB41042868017A7C
:105B800009290FD02178017061784170A088FEF753
:105B900051FB296848802089FEF74CFB29688880E2
:105BA000A089C880286801210172C08828B1FEF749
:105BB000E1FDBDE87040FFF70DBCFFF76FFBF8E7B4
:105BC000505C004000600040280000202DE9F041BA
:105BD00035480068017811F07F0102D0022905D014
:105BE0005FE0417A01F0DF01417249E04188E9BBA1
:105BF0000179D9BB41792E4D21F080040A0605EBCD
:105C000084022A4BD2F8002C03D5C2F301121201F0
:105C100002E0C2F3013212031E782346A64240D9A5
:105C200022B3807A10B308064FEA84000ED52844C8
:105C3000D0F8000CC0F3011001281DD11846FEF762
:105C4000CBFC20463021FFF7EBFE15E04619D6F8D5
:105C5000000CC0F3013001280ED14BF68F7794B1C0
:105C60001846FEF7A5FCD6F8000C00E019E0384015
:105C700080F44050C6F8000C0E4800684069804728
:105C80000020BDE8F0810C4890F82C100020FFF7B0
:105C900063FED5F8000C384080F44050C5F8000C85
:105CA000EAE70220EDE7000028000020980100202C
:105CB00000500040300000204001002010B5074C8B
:105CC00030B1074800680068804720680A3010BD7E
:105CD000216801200882002010BD0000280000205B
:105CE00030000020054A13685A8A10B10868104431
:105CF00070478888801A188200207047280000208A
:105D000010B5074C30B107480068806880472068AC
:105D10000C3010BD216801200882002010BD000059
:105D200028000020300000201E4910B5096860B12D
:105D30001D48002202800A7853060AD002F07F0232
:105D4000012A18D0022A18D001E00220088200207F
:105D500010BD497A8A0603D5027842F00202027029
:105D6000490603D5017801F0FE0102E0017841F017
:105D70000101017011E00C4810BD4A7911071306AA
:105D80000A4A02EB9161D1F8001C02D5C1F301115E
:105D900001E0C1F301310129E8D00548006800693C
:105DA0008047E8E728000020240000200050004041
:105DB000300000200A4810B500680A4AC1785278BD
:105DC000914203D882780AB982880AB1022010BDB4
:105DD00081720548006840688047002010BD0000BF
:105DE000280000209801002030000020064810B54F
:105DF0000068417A41F02001417204480068C0699E
:105E00008047002010BD0000280000203000002046
:105E100070B51B481B4D0368597921F0800005EBD4
:105E200080000C06D0F8004C21F0800203D5C4F3AA
:105E30000114240102E0C4F301342403124D2D782F
:105E400095420ED95A8862B95CB19A7A4AB109066C
:105E5000D0F8001C07D548F6BF72114081F0100140
:105E600006E0022070BD4BF68F72114081F4805124
:105E7000C0F8001C0548006880698047002070BD9C
:105E80002800002000500040980100203000002031
:105E900010B50E4C0E4A20681268C178926940799C
:105EA000904721688A7A22B118B9087908B98878A8
:105EB00008B1022010BD07480068C068804720680C
:105EC0004179C172C1780173002010BD2800002003
:105ED0002C000020300000204FF0E0210428086949
:105EE00003D020F004000861704740F00400FAE796
:105EF0000F4810B5016841F00101016041680D4A89
:105F00001140416001680C4A11400160016821F4B0
:105F100080210160416821F4FE0141604FF41F01BE
:105F20008160FFF7A1FD05494FF00060086010BDDA
:105F3000001002400000FFF8FFFFF6FE08ED00E051
:105F400010B50C460A46982100F0A4F8214601201D
:105F5000FFF758FD30210120FFF762FD04490320BF
:105F6000087004488168091B81600021017310BD1D
:105F7000C80000202803002070B5154C40F22551C0
:105F8000204600F02BF800280ED0204600F045F8FF
:105F9000C2B2104801880B0406D44C044FF0000331
:105FA00006D50A2A01D0038070BD41F400410DE0FE
:105FB0000D2A09D0C1F30D04074D491C89B22A5599
:105FC0000180C729EFD870BD41F48041018070BDC8
:105FD000003801401C000020E401002030B501F031
:105FE0001F0201240025C1F3421304FA02F2012B1F
:105FF0000FD0022B0FD0838A4FEA11210088134261
:1060000004FA01F400EA040001D000B10125284699
:1060100030BD8389F0E7038AEEE78088C0F308008B
:1060200070477047024900B10120C1F8B4017047C0
:1060300000002242FEF7D0B970B50D4801680D4C42
:10604000218021880C4D2A881140490505D54FF63D
:10605000FF3101600948406880472088298808404E
:10606000000403D5BDE87040FEF7F6B970BD00002E
:10607000445C004028010020340000204001002042
:10608000FFF7DABF70470000014901204860704700
:1060900000000020094B10B5521C520803EB4101CF
:1060A0000AD000BF10F8013B521E10F8014B43EA22
:1060B000042321F8043BF5D110BD0000006000402E
:1060C0002DE9F041304CA3682678304F002540334D
:1060D00016B1012E08D044E057F8206071435643B2
:1060E000C4E90516012121702946DFF8A4E0294AF8
:1060F000256209E01EF80160D4F808C002F80C60BF
:10610000A668761CA660491CA6689E42F2D3224E61
:106110002162626931880A446261A3695B1AA361E2
:1061200057F82010B3FBF1F701FB17336BB9274683
:10613000A5608BB2511A174AFEF724FF10F0FF0F2B
:1061400003D0787840F00400787014483288816871
:10615000891A81604FF440510220FFF71DFCFEF7C1
:10616000DDFEA06918B10E480078042809D1A560A9
:1061700001210020FFF7CCFC2570BDE8F041FEF7BF
:10618000C5BEBDE8F0810000A00100204000002055
:10619000C802002038030020CA0000202803002085
:1061A000C800002002E008C8121F08C1002AFAD166
:1061B00070477047002001E001C1121F002AFBD187
:1061C0007047000010B56FF00400FFF785FE094826
:1061D00009490068B0FBF1F0C1B2084801EB410287
:1061E0000170C2EBC1114FF6FF7202EAC10141809A
:1061F00010BD00000800002000127A001E000020E0
:106200000B49498848434FF0E021486100228A61E8
:10621000086940F0010008610869C30701D0C003A4
:10622000FAD5086920F0010008618A617047000012
:106230001E0000202DE9F04104004FF001054FF051
:10624000FF360DD094F86530042202278A48092BC6
:106250002ED2DFE803F008103D5C80C02D2DF70042
:106260003046BDE8F0813A2922D1012084F865004A
:1062700084F86A10ACE094F86430C3F10203E1548E
:1062800094F86410491E11F0FF0184F86410EBD1FA
:1062900061782378095C185C41EA001010F0FF0077
:1062A00084F86B0005D0322870D804F8642F67702A
:1062B000DFE0302020706070A070E070207131202D
:1062C00060714620A071E071082084F865003FE00D
:1062D00094F86420C2F10402A15494F86410491E99
:1062E00011F0FF0184F8641034D161782278095CE0
:1062F000125C41EA021184F86C10E178A278095C22
:10630000105C41EA001084F86D0003205EE094F810
:106310006430C3F10203E15494F86410491E11F093
:10632000FF0184F8641015D161782378095C185C4A
:1063300041EA001010F0FF0084F8700003D0042838
:1063400001D0052822D184F8652094F86B00400024
:1063500084F864008DE094F8642094F86B30C2EB0C
:106360004302A15494F86410491E11F0FF0184F80F
:1063700064107ED194F86B2004F171015206160E60
:10638000002223465FEAC67C15D111E06DE000BF14
:1063900003EB420C13F812E09CF801C01EF800E079
:1063A0001CF800C04CEA0E1C01F802C0521CD2B20C
:1063B000B2EB560FECD394F87000042805D194F892
:1063C0006B2004F16600FDF7ADFE052084F8650042
:1063D00084F864704DE094F86420C2F10202A15484
:1063E00094F86410491E11F0FF0184F8641040D144
:1063F00061782278095C105C41EA0010C3B284F82D
:10640000D53094F86B1094F86C0094F86D20084423
:10641000104494F870201044C2B2002006E0251801
:10642000401C95F87150C0B22A44D2B28142F6D8CD
:10643000981810F0FF0F18D1002084F86500054669
:1064400017E0FFE794F86400C0F10802D2B2A25C42
:106450008A420AD1401E10F0FF0084F8640008D17F
:10646000204600F027F8022503E0204600F022F83D
:1064700035462846F5E60000B765000890F870201C
:106480000AB10020704790F86D300B7090F86C30B6
:106490004B7090F867308B7090F86630CB7000F1DD
:1064A00071024A6090F86B000872704700487047AC
:1064B000580B0020D621FDF74EBE00004FF480415E
:1064C0004803FEF7E1FEFFF77DFEFEF703FD002621
:1064D000074C4FF4FA750127C4F8B4612846FFF75A
:1064E0008FFEC4F8B4712846FFF78AFEF4E7000077
:1064F00000002242120100020000004084042257E2
:1065000000020102030109022000010100C0FA0992
:10651000040000020806500407058102400000073D
:1065200005020240000004030904160349006F003D
:1065300054002D00530074007500640069006F0062
:10654000260355005300420020004D005300440034
:1065500042006F006F00740020004C006F0061006B
:1065600064006500720010035300540020004D00C9
:10657000610073007300F8FFFFFFEB3C904D534444
:106580004F53352E3000080402000200020000F8CC
:106590000D003F00FF000000000000C80000800068
:1065A00029BDA5DD024E4F204E414D452020202023
:1065B000464154313620202020004B9C4292389294
:1065C0003800009D429238000000000000424F4F0A
:1065D000544C4F4144455220080000000000000088
:1065E0000000009D429238000102030405060708DE
:1065F000093A3B3C3D3E3F400A0B0C0D0E0F00009C
:106600002066000800000020E4010000AC41000802
:10661000E4660008E40100204C0E0000B4610008AC
:1066200041420A84A24A0400093201020304060717
:10663000080935800202202D53544D2001180E53B5
:106640004420466C617368204469736B10ED312EF1
:10665000302024BC4E414E2629244203620662703B
:1066600039A401114208021002141A0353125412E1
:106670004D123312321A2002C11311490C18088529
:1066800052040A1515208113F4642B08129E12651A
:106690002A085A136151140875501B085D081A5FC7
:1066A0000413A14F1B0825101A19041AED0C1AE146
:1066B000041AF9044132401A263832041A2A082AE8
:1066C00016141908322622D433201A1A66103210F2
:1066D000033E0301100C52454144592020205458D8
:0466E0005400000062
:04000005080040EDC2
:00000001FF
